{
  "contractName": "MarcadoNFT",
  "abi": [
    {
      "inputs": [
        {
          "internalType": "string",
          "name": "_name",
          "type": "string"
        },
        {
          "internalType": "string",
          "name": "_symbol",
          "type": "string"
        }
      ],
      "stateMutability": "nonpayable",
      "type": "constructor"
    },
    {
      "anonymous": false,
      "inputs": [
        {
          "indexed": true,
          "internalType": "address",
          "name": "owner",
          "type": "address"
        },
        {
          "indexed": true,
          "internalType": "address",
          "name": "approved",
          "type": "address"
        },
        {
          "indexed": true,
          "internalType": "uint256",
          "name": "tokenId",
          "type": "uint256"
        }
      ],
      "name": "Approval",
      "type": "event"
    },
    {
      "anonymous": false,
      "inputs": [
        {
          "indexed": true,
          "internalType": "address",
          "name": "owner",
          "type": "address"
        },
        {
          "indexed": true,
          "internalType": "address",
          "name": "operator",
          "type": "address"
        },
        {
          "indexed": false,
          "internalType": "bool",
          "name": "approved",
          "type": "bool"
        }
      ],
      "name": "ApprovalForAll",
      "type": "event"
    },
    {
      "anonymous": false,
      "inputs": [
        {
          "indexed": true,
          "internalType": "address",
          "name": "previousOwner",
          "type": "address"
        },
        {
          "indexed": true,
          "internalType": "address",
          "name": "newOwner",
          "type": "address"
        }
      ],
      "name": "OwnershipTransferred",
      "type": "event"
    },
    {
      "anonymous": false,
      "inputs": [
        {
          "indexed": false,
          "internalType": "uint256",
          "name": "id",
          "type": "uint256"
        },
        {
          "indexed": true,
          "internalType": "address",
          "name": "owner",
          "type": "address"
        },
        {
          "indexed": false,
          "internalType": "uint256",
          "name": "cost",
          "type": "uint256"
        },
        {
          "indexed": false,
          "internalType": "string",
          "name": "metadataURI",
          "type": "string"
        },
        {
          "indexed": false,
          "internalType": "uint256",
          "name": "timestamp",
          "type": "uint256"
        }
      ],
      "name": "Sale",
      "type": "event"
    },
    {
      "anonymous": false,
      "inputs": [
        {
          "indexed": true,
          "internalType": "address",
          "name": "from",
          "type": "address"
        },
        {
          "indexed": true,
          "internalType": "address",
          "name": "to",
          "type": "address"
        },
        {
          "indexed": true,
          "internalType": "uint256",
          "name": "tokenId",
          "type": "uint256"
        }
      ],
      "name": "Transfer",
      "type": "event"
    },
    {
      "inputs": [
        {
          "internalType": "address",
          "name": "to",
          "type": "address"
        },
        {
          "internalType": "uint256",
          "name": "tokenId",
          "type": "uint256"
        }
      ],
      "name": "approve",
      "outputs": [],
      "stateMutability": "nonpayable",
      "type": "function"
    },
    {
      "inputs": [
        {
          "internalType": "address",
          "name": "owner",
          "type": "address"
        }
      ],
      "name": "balanceOf",
      "outputs": [
        {
          "internalType": "uint256",
          "name": "",
          "type": "uint256"
        }
      ],
      "stateMutability": "view",
      "type": "function",
      "constant": true
    },
    {
      "inputs": [],
      "name": "cost",
      "outputs": [
        {
          "internalType": "uint256",
          "name": "",
          "type": "uint256"
        }
      ],
      "stateMutability": "view",
      "type": "function",
      "constant": true
    },
    {
      "inputs": [
        {
          "internalType": "uint256",
          "name": "tokenId",
          "type": "uint256"
        }
      ],
      "name": "getApproved",
      "outputs": [
        {
          "internalType": "address",
          "name": "",
          "type": "address"
        }
      ],
      "stateMutability": "view",
      "type": "function",
      "constant": true
    },
    {
      "inputs": [
        {
          "internalType": "uint256",
          "name": "",
          "type": "uint256"
        }
      ],
      "name": "holderOf",
      "outputs": [
        {
          "internalType": "address",
          "name": "",
          "type": "address"
        }
      ],
      "stateMutability": "view",
      "type": "function",
      "constant": true
    },
    {
      "inputs": [
        {
          "internalType": "address",
          "name": "owner",
          "type": "address"
        },
        {
          "internalType": "address",
          "name": "operator",
          "type": "address"
        }
      ],
      "name": "isApprovedForAll",
      "outputs": [
        {
          "internalType": "bool",
          "name": "",
          "type": "bool"
        }
      ],
      "stateMutability": "view",
      "type": "function",
      "constant": true
    },
    {
      "inputs": [],
      "name": "name",
      "outputs": [
        {
          "internalType": "string",
          "name": "",
          "type": "string"
        }
      ],
      "stateMutability": "view",
      "type": "function",
      "constant": true
    },
    {
      "inputs": [],
      "name": "owner",
      "outputs": [
        {
          "internalType": "address",
          "name": "",
          "type": "address"
        }
      ],
      "stateMutability": "view",
      "type": "function",
      "constant": true
    },
    {
      "inputs": [
        {
          "internalType": "uint256",
          "name": "tokenId",
          "type": "uint256"
        }
      ],
      "name": "ownerOf",
      "outputs": [
        {
          "internalType": "address",
          "name": "",
          "type": "address"
        }
      ],
      "stateMutability": "view",
      "type": "function",
      "constant": true
    },
    {
      "inputs": [],
      "name": "renounceOwnership",
      "outputs": [],
      "stateMutability": "nonpayable",
      "type": "function"
    },
    {
      "inputs": [
        {
          "internalType": "address",
          "name": "from",
          "type": "address"
        },
        {
          "internalType": "address",
          "name": "to",
          "type": "address"
        },
        {
          "internalType": "uint256",
          "name": "tokenId",
          "type": "uint256"
        }
      ],
      "name": "safeTransferFrom",
      "outputs": [],
      "stateMutability": "payable",
      "type": "function",
      "payable": true
    },
    {
      "inputs": [
        {
          "internalType": "address",
          "name": "from",
          "type": "address"
        },
        {
          "internalType": "address",
          "name": "to",
          "type": "address"
        },
        {
          "internalType": "uint256",
          "name": "tokenId",
          "type": "uint256"
        },
        {
          "internalType": "bytes",
          "name": "_data",
          "type": "bytes"
        }
      ],
      "name": "safeTransferFrom",
      "outputs": [],
      "stateMutability": "payable",
      "type": "function",
      "payable": true
    },
    {
      "inputs": [
        {
          "internalType": "address",
          "name": "operator",
          "type": "address"
        },
        {
          "internalType": "bool",
          "name": "approved",
          "type": "bool"
        }
      ],
      "name": "setApprovalForAll",
      "outputs": [],
      "stateMutability": "nonpayable",
      "type": "function"
    },
    {
      "inputs": [],
      "name": "supply",
      "outputs": [
        {
          "internalType": "uint256",
          "name": "",
          "type": "uint256"
        }
      ],
      "stateMutability": "view",
      "type": "function",
      "constant": true
    },
    {
      "inputs": [
        {
          "internalType": "bytes4",
          "name": "interfaceId",
          "type": "bytes4"
        }
      ],
      "name": "supportsInterface",
      "outputs": [
        {
          "internalType": "bool",
          "name": "",
          "type": "bool"
        }
      ],
      "stateMutability": "view",
      "type": "function",
      "constant": true
    },
    {
      "inputs": [],
      "name": "symbol",
      "outputs": [
        {
          "internalType": "string",
          "name": "",
          "type": "string"
        }
      ],
      "stateMutability": "view",
      "type": "function",
      "constant": true
    },
    {
      "inputs": [
        {
          "internalType": "uint256",
          "name": "index",
          "type": "uint256"
        }
      ],
      "name": "tokenByIndex",
      "outputs": [
        {
          "internalType": "uint256",
          "name": "",
          "type": "uint256"
        }
      ],
      "stateMutability": "view",
      "type": "function",
      "constant": true
    },
    {
      "inputs": [
        {
          "internalType": "address",
          "name": "owner",
          "type": "address"
        },
        {
          "internalType": "uint256",
          "name": "index",
          "type": "uint256"
        }
      ],
      "name": "tokenOfOwnerByIndex",
      "outputs": [
        {
          "internalType": "uint256",
          "name": "",
          "type": "uint256"
        }
      ],
      "stateMutability": "view",
      "type": "function",
      "constant": true
    },
    {
      "inputs": [
        {
          "internalType": "uint256",
          "name": "tokenId",
          "type": "uint256"
        }
      ],
      "name": "tokenURI",
      "outputs": [
        {
          "internalType": "string",
          "name": "",
          "type": "string"
        }
      ],
      "stateMutability": "view",
      "type": "function",
      "constant": true
    },
    {
      "inputs": [],
      "name": "totalSupply",
      "outputs": [
        {
          "internalType": "uint256",
          "name": "",
          "type": "uint256"
        }
      ],
      "stateMutability": "view",
      "type": "function",
      "constant": true
    },
    {
      "inputs": [],
      "name": "totalTx",
      "outputs": [
        {
          "internalType": "uint256",
          "name": "",
          "type": "uint256"
        }
      ],
      "stateMutability": "view",
      "type": "function",
      "constant": true
    },
    {
      "inputs": [
        {
          "internalType": "address",
          "name": "from",
          "type": "address"
        },
        {
          "internalType": "address",
          "name": "to",
          "type": "address"
        },
        {
          "internalType": "uint256",
          "name": "tokenId",
          "type": "uint256"
        }
      ],
      "name": "transferFrom",
      "outputs": [],
      "stateMutability": "payable",
      "type": "function",
      "payable": true
    },
    {
      "inputs": [
        {
          "internalType": "address",
          "name": "newOwner",
          "type": "address"
        }
      ],
      "name": "transferOwnership",
      "outputs": [],
      "stateMutability": "nonpayable",
      "type": "function"
    },
    {
      "inputs": [
        {
          "internalType": "string",
          "name": "title",
          "type": "string"
        },
        {
          "internalType": "string",
          "name": "description",
          "type": "string"
        },
        {
          "internalType": "string",
          "name": "metadataURI",
          "type": "string"
        },
        {
          "internalType": "uint256",
          "name": "salesPrice",
          "type": "uint256"
        }
      ],
      "name": "payToMint",
      "outputs": [],
      "stateMutability": "payable",
      "type": "function",
      "payable": true
    },
    {
      "inputs": [
        {
          "internalType": "uint256",
          "name": "id",
          "type": "uint256"
        }
      ],
      "name": "payToBuy",
      "outputs": [],
      "stateMutability": "payable",
      "type": "function",
      "payable": true
    },
    {
      "inputs": [
        {
          "internalType": "uint256",
          "name": "id",
          "type": "uint256"
        },
        {
          "internalType": "uint256",
          "name": "newPrice",
          "type": "uint256"
        }
      ],
      "name": "changePrice",
      "outputs": [
        {
          "internalType": "bool",
          "name": "",
          "type": "bool"
        }
      ],
      "stateMutability": "nonpayable",
      "type": "function"
    },
    {
      "inputs": [],
      "name": "getAllNFTs",
      "outputs": [
        {
          "components": [
            {
              "internalType": "uint256",
              "name": "id",
              "type": "uint256"
            },
            {
              "internalType": "address",
              "name": "owner",
              "type": "address"
            },
            {
              "internalType": "uint256",
              "name": "cost",
              "type": "uint256"
            },
            {
              "internalType": "string",
              "name": "title",
              "type": "string"
            },
            {
              "internalType": "string",
              "name": "description",
              "type": "string"
            },
            {
              "internalType": "string",
              "name": "metadataURI",
              "type": "string"
            },
            {
              "internalType": "uint256",
              "name": "timestamp",
              "type": "uint256"
            }
          ],
          "internalType": "struct MarcadoNFT.TransactionStruct[]",
          "name": "",
          "type": "tuple[]"
        }
      ],
      "stateMutability": "view",
      "type": "function",
      "constant": true
    },
    {
      "inputs": [
        {
          "internalType": "uint256",
          "name": "id",
          "type": "uint256"
        }
      ],
      "name": "getNFT",
      "outputs": [
        {
          "components": [
            {
              "internalType": "uint256",
              "name": "id",
              "type": "uint256"
            },
            {
              "internalType": "address",
              "name": "owner",
              "type": "address"
            },
            {
              "internalType": "uint256",
              "name": "cost",
              "type": "uint256"
            },
            {
              "internalType": "string",
              "name": "title",
              "type": "string"
            },
            {
              "internalType": "string",
              "name": "description",
              "type": "string"
            },
            {
              "internalType": "string",
              "name": "metadataURI",
              "type": "string"
            },
            {
              "internalType": "uint256",
              "name": "timestamp",
              "type": "uint256"
            }
          ],
          "internalType": "struct MarcadoNFT.TransactionStruct",
          "name": "",
          "type": "tuple"
        }
      ],
      "stateMutability": "view",
      "type": "function",
      "constant": true
    },
    {
      "inputs": [],
      "name": "getMyNFTs",
      "outputs": [
        {
          "components": [
            {
              "internalType": "uint256",
              "name": "id",
              "type": "uint256"
            },
            {
              "internalType": "address",
              "name": "owner",
              "type": "address"
            },
            {
              "internalType": "uint256",
              "name": "cost",
              "type": "uint256"
            },
            {
              "internalType": "string",
              "name": "title",
              "type": "string"
            },
            {
              "internalType": "string",
              "name": "description",
              "type": "string"
            },
            {
              "internalType": "string",
              "name": "metadataURI",
              "type": "string"
            },
            {
              "internalType": "uint256",
              "name": "timestamp",
              "type": "uint256"
            }
          ],
          "internalType": "struct MarcadoNFT.TransactionStruct[]",
          "name": "",
          "type": "tuple[]"
        }
      ],
      "stateMutability": "view",
      "type": "function",
      "constant": true
    },
    {
      "inputs": [],
      "name": "getAllTransactions",
      "outputs": [
        {
          "components": [
            {
              "internalType": "uint256",
              "name": "id",
              "type": "uint256"
            },
            {
              "internalType": "address",
              "name": "owner",
              "type": "address"
            },
            {
              "internalType": "uint256",
              "name": "cost",
              "type": "uint256"
            },
            {
              "internalType": "string",
              "name": "title",
              "type": "string"
            },
            {
              "internalType": "string",
              "name": "description",
              "type": "string"
            },
            {
              "internalType": "string",
              "name": "metadataURI",
              "type": "string"
            },
            {
              "internalType": "uint256",
              "name": "timestamp",
              "type": "uint256"
            }
          ],
          "internalType": "struct MarcadoNFT.TransactionStruct[]",
          "name": "",
          "type": "tuple[]"
        }
      ],
      "stateMutability": "view",
      "type": "function",
      "constant": true
    }
  ],
  "bytecode": "0x60806040526000600e556000600f55662386f26fc100006010553480156200002657600080fd5b5060405162005cbe38038062005cbe83398181016040528101906200004c9190620003c5565b818181600090805190602001906200006692919062000178565b5080600190805190602001906200007f92919062000178565b505050620000a262000096620000aa60201b60201c565b620000b260201b60201c565b5050620004af565b600033905090565b6000600a60009054906101000a900473ffffffffffffffffffffffffffffffffffffffff16905081600a60006101000a81548173ffffffffffffffffffffffffffffffffffffffff021916908373ffffffffffffffffffffffffffffffffffffffff1602179055508173ffffffffffffffffffffffffffffffffffffffff168173ffffffffffffffffffffffffffffffffffffffff167f8be0079c531659141344cd1fd0a4f28419497f9722a3daafe3b4186f6b6457e060405160405180910390a35050565b828054620001869062000479565b90600052602060002090601f016020900481019282620001aa5760008555620001f6565b82601f10620001c557805160ff1916838001178555620001f6565b82800160010185558215620001f6579182015b82811115620001f5578251825591602001919060010190620001d8565b5b50905062000205919062000209565b5090565b5b80821115620002245760008160009055506001016200020a565b5090565b6000604051905090565b600080fd5b600080fd5b600080fd5b600080fd5b6000601f19601f8301169050919050565b7f4e487b7100000000000000000000000000000000000000000000000000000000600052604160045260246000fd5b620002918262000246565b810181811067ffffffffffffffff82111715620002b357620002b262000257565b5b80604052505050565b6000620002c862000228565b9050620002d6828262000286565b919050565b600067ffffffffffffffff821115620002f957620002f862000257565b5b620003048262000246565b9050602081019050919050565b60005b838110156200033157808201518184015260208101905062000314565b8381111562000341576000848401525b50505050565b60006200035e6200035884620002db565b620002bc565b9050828152602081018484840111156200037d576200037c62000241565b5b6200038a84828562000311565b509392505050565b600082601f830112620003aa57620003a96200023c565b5b8151620003bc84826020860162000347565b91505092915050565b60008060408385031215620003df57620003de62000232565b5b600083015167ffffffffffffffff8111156200040057620003ff62000237565b5b6200040e8582860162000392565b925050602083015167ffffffffffffffff81111562000432576200043162000237565b5b620004408582860162000392565b9150509250929050565b7f4e487b7100000000000000000000000000000000000000000000000000000000600052602260045260246000fd5b600060028204905060018216806200049257607f821691505b60208210811415620004a957620004a86200044a565b5b50919050565b6157ff80620004bf6000396000f3fe6080604052600436106101cd5760003560e01c806370a08231116100f7578063a22cb46511610095578063dbacc23711610064578063dbacc2371461066f578063e0391b09146106ac578063e985e9c5146106d7578063f2fde38b14610714576101cd565b8063a22cb465146105b0578063b3de019c146105d9578063b88d4fde14610616578063c87b56dd14610632576101cd565b8063799c0c1e116100d1578063799c0c1e146105225780638da5cb5b1461053e57806395d89b41146105695780639ba4b01714610594576101cd565b806370a08231146104a3578063715018a6146104e05780637220cf39146104f7576101cd565b806323b872dd1161016f5780634f6ccce71161013e5780634f6ccce7146103c1578063576f7ea7146103fe578063629cb2e41461043b5780636352211e14610466576101cd565b806323b872dd1461032157806327506f531461033d5780632f745c591461036857806342842e0e146103a5576101cd565b8063081812fc116101ab578063081812fc14610265578063095ea7b3146102a257806313faede6146102cb57806318160ddd146102f6576101cd565b806301ffc9a7146101d2578063047fc9aa1461020f57806306fdde031461023a575b600080fd5b3480156101de57600080fd5b506101f960048036038101906101f49190613d23565b61073d565b6040516102069190613d6b565b60405180910390f35b34801561021b57600080fd5b506102246107b7565b6040516102319190613d9f565b60405180910390f35b34801561024657600080fd5b5061024f6107bd565b60405161025c9190613e53565b60405180910390f35b34801561027157600080fd5b5061028c60048036038101906102879190613ea1565b61084f565b6040516102999190613f0f565b60405180910390f35b3480156102ae57600080fd5b506102c960048036038101906102c49190613f56565b6108d4565b005b3480156102d757600080fd5b506102e06109ec565b6040516102ed9190613d9f565b60405180910390f35b34801561030257600080fd5b5061030b6109f2565b6040516103189190613d9f565b60405180910390f35b61033b60048036038101906103369190613f96565b6109ff565b005b34801561034957600080fd5b50610352610a5f565b60405161035f91906141bd565b60405180910390f35b34801561037457600080fd5b5061038f600480360381019061038a9190613f56565b610ce8565b60405161039c9190613d9f565b60405180910390f35b6103bf60048036038101906103ba9190613f96565b610d8d565b005b3480156103cd57600080fd5b506103e860048036038101906103e39190613ea1565b610dad565b6040516103f59190613d9f565b60405180910390f35b34801561040a57600080fd5b5061042560048036038101906104209190613ea1565b610e1e565b6040516104329190614289565b60405180910390f35b34801561044757600080fd5b50610450611090565b60405161045d91906141bd565b60405180910390f35b34801561047257600080fd5b5061048d60048036038101906104889190613ea1565b6114cb565b60405161049a9190613f0f565b60405180910390f35b3480156104af57600080fd5b506104ca60048036038101906104c591906142ab565b61157d565b6040516104d79190613d9f565b60405180910390f35b3480156104ec57600080fd5b506104f5611635565b005b34801561050357600080fd5b5061050c611649565b6040516105199190613d9f565b60405180910390f35b61053c6004803603810190610537919061440d565b61164f565b005b34801561054a57600080fd5b50610553611aeb565b6040516105609190613f0f565b60405180910390f35b34801561057557600080fd5b5061057e611b15565b60405161058b9190613e53565b60405180910390f35b6105ae60048036038101906105a99190613ea1565b611ba7565b005b3480156105bc57600080fd5b506105d760048036038101906105d291906144f4565b6121fd565b005b3480156105e557600080fd5b5061060060048036038101906105fb9190614534565b612213565b60405161060d9190613d6b565b60405180910390f35b610630600480360381019061062b9190614615565b612356565b005b34801561063e57600080fd5b5061065960048036038101906106549190613ea1565b6123b8565b6040516106669190613e53565b60405180910390f35b34801561067b57600080fd5b5061069660048036038101906106919190613ea1565b61245f565b6040516106a39190613f0f565b60405180910390f35b3480156106b857600080fd5b506106c1612492565b6040516106ce91906141bd565b60405180910390f35b3480156106e357600080fd5b506106fe60048036038101906106f99190614698565b61271b565b60405161070b9190613d6b565b60405180910390f35b34801561072057600080fd5b5061073b600480360381019061073691906142ab565b6127af565b005b60007f780e9d63000000000000000000000000000000000000000000000000000000007bffffffffffffffffffffffffffffffffffffffffffffffffffffffff1916827bffffffffffffffffffffffffffffffffffffffffffffffffffffffff191614806107b057506107af82612833565b5b9050919050565b600e5481565b6060600080546107cc90614707565b80601f01602080910402602001604051908101604052809291908181526020018280546107f890614707565b80156108455780601f1061081a57610100808354040283529160200191610845565b820191906000526020600020905b81548152906001019060200180831161082857829003601f168201915b5050505050905090565b600061085a82612915565b610899576040517f08c379a0000000000000000000000000000000000000000000000000000000008152600401610890906147ab565b60405180910390fd5b6004600083815260200190815260200160002060009054906101000a900473ffffffffffffffffffffffffffffffffffffffff169050919050565b60006108df826114cb565b90508073ffffffffffffffffffffffffffffffffffffffff168373ffffffffffffffffffffffffffffffffffffffff161415610950576040517f08c379a00000000000000000000000000000000000000000000000000000000081526004016109479061483d565b60405180910390fd5b8073ffffffffffffffffffffffffffffffffffffffff1661096f612981565b73ffffffffffffffffffffffffffffffffffffffff16148061099e575061099d81610998612981565b61271b565b5b6109dd576040517f08c379a00000000000000000000000000000000000000000000000000000000081526004016109d4906148cf565b60405180910390fd5b6109e78383612989565b505050565b60105481565b6000600880549050905090565b610a10610a0a612981565b82612a42565b610a4f576040517f08c379a0000000000000000000000000000000000000000000000000000000008152600401610a4690614961565b60405180910390fd5b610a5a838383612b20565b505050565b60606011805480602002602001604051908101604052809291908181526020016000905b82821015610cdf57838290600052602060002090600702016040518060e0016040529081600082015481526020016001820160009054906101000a900473ffffffffffffffffffffffffffffffffffffffff1673ffffffffffffffffffffffffffffffffffffffff1673ffffffffffffffffffffffffffffffffffffffff16815260200160028201548152602001600382018054610b2090614707565b80601f0160208091040260200160405190810160405280929190818152602001828054610b4c90614707565b8015610b995780601f10610b6e57610100808354040283529160200191610b99565b820191906000526020600020905b815481529060010190602001808311610b7c57829003601f168201915b50505050508152602001600482018054610bb290614707565b80601f0160208091040260200160405190810160405280929190818152602001828054610bde90614707565b8015610c2b5780601f10610c0057610100808354040283529160200191610c2b565b820191906000526020600020905b815481529060010190602001808311610c0e57829003601f168201915b50505050508152602001600582018054610c4490614707565b80601f0160208091040260200160405190810160405280929190818152602001828054610c7090614707565b8015610cbd5780601f10610c9257610100808354040283529160200191610cbd565b820191906000526020600020905b815481529060010190602001808311610ca057829003601f168201915b5050505050815260200160068201548152505081526020019060010190610a83565b50505050905090565b6000610cf38361157d565b8210610d34576040517f08c379a0000000000000000000000000000000000000000000000000000000008152600401610d2b906149f3565b60405180910390fd5b600660008473ffffffffffffffffffffffffffffffffffffffff1673ffffffffffffffffffffffffffffffffffffffff168152602001908152602001600020600083815260200190815260200160002054905092915050565b610da883838360405180602001604052806000815250612356565b505050565b6000610db76109f2565b8210610df8576040517f08c379a0000000000000000000000000000000000000000000000000000000008152600401610def90614a85565b60405180910390fd5b60088281548110610e0c57610e0b614aa5565b5b90600052602060002001549050919050565b610e26613bc1565b6012600183610e359190614b03565b81548110610e4657610e45614aa5565b5b90600052602060002090600702016040518060e0016040529081600082015481526020016001820160009054906101000a900473ffffffffffffffffffffffffffffffffffffffff1673ffffffffffffffffffffffffffffffffffffffff1673ffffffffffffffffffffffffffffffffffffffff16815260200160028201548152602001600382018054610ed990614707565b80601f0160208091040260200160405190810160405280929190818152602001828054610f0590614707565b8015610f525780601f10610f2757610100808354040283529160200191610f52565b820191906000526020600020905b815481529060010190602001808311610f3557829003601f168201915b50505050508152602001600482018054610f6b90614707565b80601f0160208091040260200160405190810160405280929190818152602001828054610f9790614707565b8015610fe45780601f10610fb957610100808354040283529160200191610fe4565b820191906000526020600020905b815481529060010190602001808311610fc757829003601f168201915b50505050508152602001600582018054610ffd90614707565b80601f016020809104026020016040519081016040528092919081815260200182805461102990614707565b80156110765780601f1061104b57610100808354040283529160200191611076565b820191906000526020600020905b81548152906001019060200180831161105957829003601f168201915b505050505081526020016006820154815250509050919050565b6060600080600080600090505b601280549050811015611143573373ffffffffffffffffffffffffffffffffffffffff16600d60006001846110d29190614b37565b815260200190815260200160002060010160009054906101000a900473ffffffffffffffffffffffffffffffffffffffff1673ffffffffffffffffffffffffffffffffffffffff1614156111305760018461112d9190614b37565b93505b808061113b90614b8d565b91505061109d565b5060008367ffffffffffffffff8111156111605761115f6142e2565b5b60405190808252806020026020018201604052801561119957816020015b611186613bc1565b81526020019060019003908161117e5790505b50905060005b6012805490508110156114c0573373ffffffffffffffffffffffffffffffffffffffff16600d60006001846111d49190614b37565b815260200190815260200160002060010160009054906101000a900473ffffffffffffffffffffffffffffffffffffffff1673ffffffffffffffffffffffffffffffffffffffff1614156114ad5760018161122f9190614b37565b92506000600d60008581526020019081526020016000209050806040518060e0016040529081600082015481526020016001820160009054906101000a900473ffffffffffffffffffffffffffffffffffffffff1673ffffffffffffffffffffffffffffffffffffffff1673ffffffffffffffffffffffffffffffffffffffff168152602001600282015481526020016003820180546112ce90614707565b80601f01602080910402602001604051908101604052809291908181526020018280546112fa90614707565b80156113475780601f1061131c57610100808354040283529160200191611347565b820191906000526020600020905b81548152906001019060200180831161132a57829003601f168201915b5050505050815260200160048201805461136090614707565b80601f016020809104026020016040519081016040528092919081815260200182805461138c90614707565b80156113d95780601f106113ae576101008083540402835291602001916113d9565b820191906000526020600020905b8154815290600101906020018083116113bc57829003601f168201915b505050505081526020016005820180546113f290614707565b80601f016020809104026020016040519081016040528092919081815260200182805461141e90614707565b801561146b5780601f106114405761010080835404028352916020019161146b565b820191906000526020600020905b81548152906001019060200180831161144e57829003601f168201915b5050505050815260200160068201548152505083868151811061149157611490614aa5565b5b60200260200101819052506001856114a99190614b37565b9450505b80806114b890614b8d565b91505061119f565b508094505050505090565b6000806002600084815260200190815260200160002060009054906101000a900473ffffffffffffffffffffffffffffffffffffffff169050600073ffffffffffffffffffffffffffffffffffffffff168173ffffffffffffffffffffffffffffffffffffffff161415611574576040517f08c379a000000000000000000000000000000000000000000000000000000000815260040161156b90614c48565b60405180910390fd5b80915050919050565b60008073ffffffffffffffffffffffffffffffffffffffff168273ffffffffffffffffffffffffffffffffffffffff1614156115ee576040517f08c379a00000000000000000000000000000000000000000000000000000000081526004016115e590614cda565b60405180910390fd5b600360008373ffffffffffffffffffffffffffffffffffffffff1673ffffffffffffffffffffffffffffffffffffffff168152602001908152602001600020549050919050565b61163d612d7c565b6116476000612dfa565b565b600f5481565b601054341015611694576040517f08c379a000000000000000000000000000000000000000000000000000000000815260040161168b90614d46565b60405180910390fd5b6000600b836040516116a69190614da2565b908152602001604051809103902060009054906101000a900460ff1660ff1614611705576040517f08c379a00000000000000000000000000000000000000000000000000000000081526004016116fc90614e05565b60405180910390fd5b61170d611aeb565b73ffffffffffffffffffffffffffffffffffffffff163373ffffffffffffffffffffffffffffffffffffffff16141561177b576040517f08c379a000000000000000000000000000000000000000000000000000000000815260040161177290614e71565b60405180910390fd5b61178c611786611aeb565b34612ec0565b600e600081548092919061179f90614b8d565b919050555060126040518060e00160405280600e5481526020013373ffffffffffffffffffffffffffffffffffffffff1681526020018381526020018681526020018581526020018481526020014281525090806001815401808255809150506001900390600052602060002090600702016000909190919091506000820151816000015560208201518160010160006101000a81548173ffffffffffffffffffffffffffffffffffffffff021916908373ffffffffffffffffffffffffffffffffffffffff160217905550604082015181600201556060820151816003019080519060200190611891929190613c14565b5060808201518160040190805190602001906118ae929190613c14565b5060a08201518160050190805190602001906118cb929190613c14565b5060c0820151816006015550506040518060e00160405280600e5481526020013373ffffffffffffffffffffffffffffffffffffffff16815260200182815260200185815260200184815260200183815260200142815250600d6000600e5481526020019081526020016000206000820151816000015560208201518160010160006101000a81548173ffffffffffffffffffffffffffffffffffffffff021916908373ffffffffffffffffffffffffffffffffffffffff1602179055506040820151816002015560608201518160030190805190602001906119af929190613c14565b5060808201518160040190805190602001906119cc929190613c14565b5060a08201518160050190805190602001906119e9929190613c14565b5060c082015181600601559050503373ffffffffffffffffffffffffffffffffffffffff167fb9508407a6eccb191d8da3286f4173697cf95604e9ea192fe5ab7c862b5221f6600e54348542604051611a459493929190614e91565b60405180910390a2611a5933600e54612f3b565b6001600b83604051611a6b9190614da2565b908152602001604051809103902060006101000a81548160ff021916908360ff16021790555033600c6000600e54815260200190815260200160002060006101000a81548173ffffffffffffffffffffffffffffffffffffffff021916908373ffffffffffffffffffffffffffffffffffffffff16021790555050505050565b6000600a60009054906101000a900473ffffffffffffffffffffffffffffffffffffffff16905090565b606060018054611b2490614707565b80601f0160208091040260200160405190810160405280929190818152602001828054611b5090614707565b8015611b9d5780601f10611b7257610100808354040283529160200191611b9d565b820191906000526020600020905b815481529060010190602001808311611b8057829003601f168201915b5050505050905090565b6012600182611bb69190614b03565b81548110611bc757611bc6614aa5565b5b906000526020600020906007020160020154341015611c1b576040517f08c379a0000000000000000000000000000000000000000000000000000000008152600401611c1290614f29565b60405180910390fd5b6012600182611c2a9190614b03565b81548110611c3b57611c3a614aa5565b5b906000526020600020906007020160010160009054906101000a900473ffffffffffffffffffffffffffffffffffffffff1673ffffffffffffffffffffffffffffffffffffffff163373ffffffffffffffffffffffffffffffffffffffff161415611cdb576040517f08c379a0000000000000000000000000000000000000000000000000000000008152600401611cd290614f95565b60405180910390fd5b611d366012600183611ced9190614b03565b81548110611cfe57611cfd614aa5565b5b906000526020600020906007020160010160009054906101000a900473ffffffffffffffffffffffffffffffffffffffff1634612ec0565b600f6000815480929190611d4990614b8d565b919050555060116040518060e00160405280600f5481526020013373ffffffffffffffffffffffffffffffffffffffff1681526020013481526020016012600185611d949190614b03565b81548110611da557611da4614aa5565b5b90600052602060002090600702016003018054611dc190614707565b80601f0160208091040260200160405190810160405280929190818152602001828054611ded90614707565b8015611e3a5780601f10611e0f57610100808354040283529160200191611e3a565b820191906000526020600020905b815481529060010190602001808311611e1d57829003601f168201915b505050505081526020016012600185611e539190614b03565b81548110611e6457611e63614aa5565b5b90600052602060002090600702016004018054611e8090614707565b80601f0160208091040260200160405190810160405280929190818152602001828054611eac90614707565b8015611ef95780601f10611ece57610100808354040283529160200191611ef9565b820191906000526020600020905b815481529060010190602001808311611edc57829003601f168201915b505050505081526020016012600185611f129190614b03565b81548110611f2357611f22614aa5565b5b90600052602060002090600702016005018054611f3f90614707565b80601f0160208091040260200160405190810160405280929190818152602001828054611f6b90614707565b8015611fb85780601f10611f8d57610100808354040283529160200191611fb8565b820191906000526020600020905b815481529060010190602001808311611f9b57829003601f168201915b505050505081526020014281525090806001815401808255809150506001900390600052602060002090600702016000909190919091506000820151816000015560208201518160010160006101000a81548173ffffffffffffffffffffffffffffffffffffffff021916908373ffffffffffffffffffffffffffffffffffffffff160217905550604082015181600201556060820151816003019080519060200190612066929190613c14565b506080820151816004019080519060200190612083929190613c14565b5060a08201518160050190805190602001906120a0929190613c14565b5060c0820151816006015550503373ffffffffffffffffffffffffffffffffffffffff167fb9508407a6eccb191d8da3286f4173697cf95604e9ea192fe5ab7c862b5221f6600f543460126001866120f89190614b03565b8154811061210957612108614aa5565b5b90600052602060002090600702016005014260405161212b949392919061504a565b60405180910390a23360126001836121439190614b03565b8154811061215457612153614aa5565b5b906000526020600020906007020160010160006101000a81548173ffffffffffffffffffffffffffffffffffffffff021916908373ffffffffffffffffffffffffffffffffffffffff16021790555033600d6000600e54815260200190815260200160002060010160006101000a81548173ffffffffffffffffffffffffffffffffffffffff021916908373ffffffffffffffffffffffffffffffffffffffff16021790555050565b61220f612208612981565b8383612f59565b5050565b6000808211612257576040517f08c379a000000000000000000000000000000000000000000000000000000000815260040161224e906150e2565b60405180910390fd5b60126001846122669190614b03565b8154811061227757612276614aa5565b5b906000526020600020906007020160010160009054906101000a900473ffffffffffffffffffffffffffffffffffffffff1673ffffffffffffffffffffffffffffffffffffffff163373ffffffffffffffffffffffffffffffffffffffff1614612316576040517f08c379a000000000000000000000000000000000000000000000000000000000815260040161230d90614f95565b60405180910390fd5b8160126001856123269190614b03565b8154811061233757612336614aa5565b5b9060005260206000209060070201600201819055506001905092915050565b612367612361612981565b83612a42565b6123a6576040517f08c379a000000000000000000000000000000000000000000000000000000000815260040161239d90614961565b60405180910390fd5b6123b2848484846130c6565b50505050565b60606123c382612915565b612402576040517f08c379a00000000000000000000000000000000000000000000000000000000081526004016123f990615174565b60405180910390fd5b600061240c613122565b9050600081511161242c5760405180602001604052806000815250612457565b8061243684613139565b604051602001612447929190615194565b6040516020818303038152906040525b915050919050565b600c6020528060005260406000206000915054906101000a900473ffffffffffffffffffffffffffffffffffffffff1681565b60606012805480602002602001604051908101604052809291908181526020016000905b8282101561271257838290600052602060002090600702016040518060e0016040529081600082015481526020016001820160009054906101000a900473ffffffffffffffffffffffffffffffffffffffff1673ffffffffffffffffffffffffffffffffffffffff1673ffffffffffffffffffffffffffffffffffffffff1681526020016002820154815260200160038201805461255390614707565b80601f016020809104026020016040519081016040528092919081815260200182805461257f90614707565b80156125cc5780601f106125a1576101008083540402835291602001916125cc565b820191906000526020600020905b8154815290600101906020018083116125af57829003601f168201915b505050505081526020016004820180546125e590614707565b80601f016020809104026020016040519081016040528092919081815260200182805461261190614707565b801561265e5780601f106126335761010080835404028352916020019161265e565b820191906000526020600020905b81548152906001019060200180831161264157829003601f168201915b5050505050815260200160058201805461267790614707565b80601f01602080910402602001604051908101604052809291908181526020018280546126a390614707565b80156126f05780601f106126c5576101008083540402835291602001916126f0565b820191906000526020600020905b8154815290600101906020018083116126d357829003601f168201915b50505050508152602001600682015481525050815260200190600101906124b6565b50505050905090565b6000600560008473ffffffffffffffffffffffffffffffffffffffff1673ffffffffffffffffffffffffffffffffffffffff16815260200190815260200160002060008373ffffffffffffffffffffffffffffffffffffffff1673ffffffffffffffffffffffffffffffffffffffff16815260200190815260200160002060009054906101000a900460ff16905092915050565b6127b7612d7c565b600073ffffffffffffffffffffffffffffffffffffffff168173ffffffffffffffffffffffffffffffffffffffff161415612827576040517f08c379a000000000000000000000000000000000000000000000000000000000815260040161281e9061522a565b60405180910390fd5b61283081612dfa565b50565b60007f80ac58cd000000000000000000000000000000000000000000000000000000007bffffffffffffffffffffffffffffffffffffffffffffffffffffffff1916827bffffffffffffffffffffffffffffffffffffffffffffffffffffffff191614806128fe57507f5b5e139f000000000000000000000000000000000000000000000000000000007bffffffffffffffffffffffffffffffffffffffffffffffffffffffff1916827bffffffffffffffffffffffffffffffffffffffffffffffffffffffff1916145b8061290e575061290d82613211565b5b9050919050565b60008073ffffffffffffffffffffffffffffffffffffffff166002600084815260200190815260200160002060009054906101000a900473ffffffffffffffffffffffffffffffffffffffff1673ffffffffffffffffffffffffffffffffffffffff1614159050919050565b600033905090565b816004600083815260200190815260200160002060006101000a81548173ffffffffffffffffffffffffffffffffffffffff021916908373ffffffffffffffffffffffffffffffffffffffff160217905550808273ffffffffffffffffffffffffffffffffffffffff166129fc836114cb565b73ffffffffffffffffffffffffffffffffffffffff167f8c5be1e5ebec7d5bd14f71427d1e84f3dd0314c0f7b2291e5b200ac8c7c3b92560405160405180910390a45050565b6000612a4d82612915565b612a8c576040517f08c379a0000000000000000000000000000000000000000000000000000000008152600401612a83906152bc565b60405180910390fd5b6000612a97836114cb565b90508073ffffffffffffffffffffffffffffffffffffffff168473ffffffffffffffffffffffffffffffffffffffff161480612b0657508373ffffffffffffffffffffffffffffffffffffffff16612aee8461084f565b73ffffffffffffffffffffffffffffffffffffffff16145b80612b175750612b16818561271b565b5b91505092915050565b8273ffffffffffffffffffffffffffffffffffffffff16612b40826114cb565b73ffffffffffffffffffffffffffffffffffffffff1614612b96576040517f08c379a0000000000000000000000000000000000000000000000000000000008152600401612b8d9061534e565b60405180910390fd5b600073ffffffffffffffffffffffffffffffffffffffff168273ffffffffffffffffffffffffffffffffffffffff161415612c06576040517f08c379a0000000000000000000000000000000000000000000000000000000008152600401612bfd906153e0565b60405180910390fd5b612c1183838361327b565b612c1c600082612989565b6001600360008573ffffffffffffffffffffffffffffffffffffffff1673ffffffffffffffffffffffffffffffffffffffff1681526020019081526020016000206000828254612c6c9190614b03565b925050819055506001600360008473ffffffffffffffffffffffffffffffffffffffff1673ffffffffffffffffffffffffffffffffffffffff1681526020019081526020016000206000828254612cc39190614b37565b92505081905550816002600083815260200190815260200160002060006101000a81548173ffffffffffffffffffffffffffffffffffffffff021916908373ffffffffffffffffffffffffffffffffffffffff160217905550808273ffffffffffffffffffffffffffffffffffffffff168473ffffffffffffffffffffffffffffffffffffffff167fddf252ad1be2c89b69c2b068fc378daa952ba7f163c4a11628f55a4df523b3ef60405160405180910390a4505050565b612d84612981565b73ffffffffffffffffffffffffffffffffffffffff16612da2611aeb565b73ffffffffffffffffffffffffffffffffffffffff1614612df8576040517f08c379a0000000000000000000000000000000000000000000000000000000008152600401612def9061544c565b60405180910390fd5b565b6000600a60009054906101000a900473ffffffffffffffffffffffffffffffffffffffff16905081600a60006101000a81548173ffffffffffffffffffffffffffffffffffffffff021916908373ffffffffffffffffffffffffffffffffffffffff1602179055508173ffffffffffffffffffffffffffffffffffffffff168173ffffffffffffffffffffffffffffffffffffffff167f8be0079c531659141344cd1fd0a4f28419497f9722a3daafe3b4186f6b6457e060405160405180910390a35050565b60008273ffffffffffffffffffffffffffffffffffffffff1682604051612ee69061549d565b60006040518083038185875af1925050503d8060008114612f23576040519150601f19603f3d011682016040523d82523d6000602084013e612f28565b606091505b5050905080612f3657600080fd5b505050565b612f5582826040518060200160405280600081525061338f565b5050565b8173ffffffffffffffffffffffffffffffffffffffff168373ffffffffffffffffffffffffffffffffffffffff161415612fc8576040517f08c379a0000000000000000000000000000000000000000000000000000000008152600401612fbf906154fe565b60405180910390fd5b80600560008573ffffffffffffffffffffffffffffffffffffffff1673ffffffffffffffffffffffffffffffffffffffff16815260200190815260200160002060008473ffffffffffffffffffffffffffffffffffffffff1673ffffffffffffffffffffffffffffffffffffffff16815260200190815260200160002060006101000a81548160ff0219169083151502179055508173ffffffffffffffffffffffffffffffffffffffff168373ffffffffffffffffffffffffffffffffffffffff167f17307eab39ab6107e8899845ad3d59bd9653f200f220920489ca2b5937696c31836040516130b99190613d6b565b60405180910390a3505050565b6130d1848484612b20565b6130dd848484846133ea565b61311c576040517f08c379a000000000000000000000000000000000000000000000000000000000815260040161311390615590565b60405180910390fd5b50505050565b606060405180602001604052806000815250905090565b60606000600161314884613572565b01905060008167ffffffffffffffff811115613167576131666142e2565b5b6040519080825280601f01601f1916602001820160405280156131995781602001600182028036833780820191505090505b509050600082602001820190505b600115613206578080600190039150507f3031323334353637383961626364656600000000000000000000000000000000600a86061a8153600a85816131f0576131ef6155b0565b5b049450600085141561320157613206565b6131a7565b819350505050919050565b60007f01ffc9a7000000000000000000000000000000000000000000000000000000007bffffffffffffffffffffffffffffffffffffffffffffffffffffffff1916827bffffffffffffffffffffffffffffffffffffffffffffffffffffffff1916149050919050565b6132868383836136c5565b600073ffffffffffffffffffffffffffffffffffffffff168373ffffffffffffffffffffffffffffffffffffffff1614156132c9576132c4816136ca565b613308565b8173ffffffffffffffffffffffffffffffffffffffff168373ffffffffffffffffffffffffffffffffffffffff1614613307576133068382613713565b5b5b600073ffffffffffffffffffffffffffffffffffffffff168273ffffffffffffffffffffffffffffffffffffffff16141561334b5761334681613880565b61338a565b8273ffffffffffffffffffffffffffffffffffffffff168273ffffffffffffffffffffffffffffffffffffffff1614613389576133888282613951565b5b5b505050565b61339983836139d0565b6133a660008484846133ea565b6133e5576040517f08c379a00000000000000000000000000000000000000000000000000000000081526004016133dc90615590565b60405180910390fd5b505050565b600061340b8473ffffffffffffffffffffffffffffffffffffffff16613b9e565b15613565578373ffffffffffffffffffffffffffffffffffffffff1663150b7a02613434612981565b8786866040518563ffffffff1660e01b81526004016134569493929190615634565b6020604051808303816000875af192505050801561349257506040513d601f19601f8201168201806040525081019061348f9190615695565b60015b613515573d80600081146134c2576040519150601f19603f3d011682016040523d82523d6000602084013e6134c7565b606091505b5060008151141561350d576040517f08c379a000000000000000000000000000000000000000000000000000000000815260040161350490615590565b60405180910390fd5b805181602001fd5b63150b7a0260e01b7bffffffffffffffffffffffffffffffffffffffffffffffffffffffff1916817bffffffffffffffffffffffffffffffffffffffffffffffffffffffff19161491505061356a565b600190505b949350505050565b600080600090507a184f03e93ff9f4daa797ed6e38ed64bf6a1f01000000000000000083106135d0577a184f03e93ff9f4daa797ed6e38ed64bf6a1f01000000000000000083816135c6576135c56155b0565b5b0492506040810190505b6d04ee2d6d415b85acef8100000000831061360d576d04ee2d6d415b85acef81000000008381613603576136026155b0565b5b0492506020810190505b662386f26fc10000831061363c57662386f26fc100008381613632576136316155b0565b5b0492506010810190505b6305f5e1008310613665576305f5e100838161365b5761365a6155b0565b5b0492506008810190505b612710831061368a5761271083816136805761367f6155b0565b5b0492506004810190505b606483106136ad57606483816136a3576136a26155b0565b5b0492506002810190505b600a83106136bc576001810190505b80915050919050565b505050565b6008805490506009600083815260200190815260200160002081905550600881908060018154018082558091505060019003906000526020600020016000909190919091505550565b600060016137208461157d565b61372a9190614b03565b905060006007600084815260200190815260200160002054905081811461380f576000600660008673ffffffffffffffffffffffffffffffffffffffff1673ffffffffffffffffffffffffffffffffffffffff168152602001908152602001600020600084815260200190815260200160002054905080600660008773ffffffffffffffffffffffffffffffffffffffff1673ffffffffffffffffffffffffffffffffffffffff168152602001908152602001600020600084815260200190815260200160002081905550816007600083815260200190815260200160002081905550505b6007600084815260200190815260200160002060009055600660008573ffffffffffffffffffffffffffffffffffffffff1673ffffffffffffffffffffffffffffffffffffffff16815260200190815260200160002060008381526020019081526020016000206000905550505050565b600060016008805490506138949190614b03565b90506000600960008481526020019081526020016000205490506000600883815481106138c4576138c3614aa5565b5b9060005260206000200154905080600883815481106138e6576138e5614aa5565b5b906000526020600020018190555081600960008381526020019081526020016000208190555060096000858152602001908152602001600020600090556008805480613935576139346156c2565b5b6001900381819060005260206000200160009055905550505050565b600061395c8361157d565b905081600660008573ffffffffffffffffffffffffffffffffffffffff1673ffffffffffffffffffffffffffffffffffffffff168152602001908152602001600020600083815260200190815260200160002081905550806007600084815260200190815260200160002081905550505050565b600073ffffffffffffffffffffffffffffffffffffffff168273ffffffffffffffffffffffffffffffffffffffff161415613a40576040517f08c379a0000000000000000000000000000000000000000000000000000000008152600401613a379061573d565b60405180910390fd5b613a4981612915565b15613a89576040517f08c379a0000000000000000000000000000000000000000000000000000000008152600401613a80906157a9565b60405180910390fd5b613a956000838361327b565b6001600360008473ffffffffffffffffffffffffffffffffffffffff1673ffffffffffffffffffffffffffffffffffffffff1681526020019081526020016000206000828254613ae59190614b37565b92505081905550816002600083815260200190815260200160002060006101000a81548173ffffffffffffffffffffffffffffffffffffffff021916908373ffffffffffffffffffffffffffffffffffffffff160217905550808273ffffffffffffffffffffffffffffffffffffffff16600073ffffffffffffffffffffffffffffffffffffffff167fddf252ad1be2c89b69c2b068fc378daa952ba7f163c4a11628f55a4df523b3ef60405160405180910390a45050565b6000808273ffffffffffffffffffffffffffffffffffffffff163b119050919050565b6040518060e0016040528060008152602001600073ffffffffffffffffffffffffffffffffffffffff16815260200160008152602001606081526020016060815260200160608152602001600081525090565b828054613c2090614707565b90600052602060002090601f016020900481019282613c425760008555613c89565b82601f10613c5b57805160ff1916838001178555613c89565b82800160010185558215613c89579182015b82811115613c88578251825591602001919060010190613c6d565b5b509050613c969190613c9a565b5090565b5b80821115613cb3576000816000905550600101613c9b565b5090565b6000604051905090565b600080fd5b600080fd5b60007fffffffff0000000000000000000000000000000000000000000000000000000082169050919050565b613d0081613ccb565b8114613d0b57600080fd5b50565b600081359050613d1d81613cf7565b92915050565b600060208284031215613d3957613d38613cc1565b5b6000613d4784828501613d0e565b91505092915050565b60008115159050919050565b613d6581613d50565b82525050565b6000602082019050613d806000830184613d5c565b92915050565b6000819050919050565b613d9981613d86565b82525050565b6000602082019050613db46000830184613d90565b92915050565b600081519050919050565b600082825260208201905092915050565b60005b83811015613df4578082015181840152602081019050613dd9565b83811115613e03576000848401525b50505050565b6000601f19601f8301169050919050565b6000613e2582613dba565b613e2f8185613dc5565b9350613e3f818560208601613dd6565b613e4881613e09565b840191505092915050565b60006020820190508181036000830152613e6d8184613e1a565b905092915050565b613e7e81613d86565b8114613e8957600080fd5b50565b600081359050613e9b81613e75565b92915050565b600060208284031215613eb757613eb6613cc1565b5b6000613ec584828501613e8c565b91505092915050565b600073ffffffffffffffffffffffffffffffffffffffff82169050919050565b6000613ef982613ece565b9050919050565b613f0981613eee565b82525050565b6000602082019050613f246000830184613f00565b92915050565b613f3381613eee565b8114613f3e57600080fd5b50565b600081359050613f5081613f2a565b92915050565b60008060408385031215613f6d57613f6c613cc1565b5b6000613f7b85828601613f41565b9250506020613f8c85828601613e8c565b9150509250929050565b600080600060608486031215613faf57613fae613cc1565b5b6000613fbd86828701613f41565b9350506020613fce86828701613f41565b9250506040613fdf86828701613e8c565b9150509250925092565b600081519050919050565b600082825260208201905092915050565b6000819050602082019050919050565b61401e81613d86565b82525050565b61402d81613eee565b82525050565b600082825260208201905092915050565b600061404f82613dba565b6140598185614033565b9350614069818560208601613dd6565b61407281613e09565b840191505092915050565b600060e0830160008301516140956000860182614015565b5060208301516140a86020860182614024565b5060408301516140bb6040860182614015565b50606083015184820360608601526140d38282614044565b915050608083015184820360808601526140ed8282614044565b91505060a083015184820360a08601526141078282614044565b91505060c083015161411c60c0860182614015565b508091505092915050565b6000614133838361407d565b905092915050565b6000602082019050919050565b600061415382613fe9565b61415d8185613ff4565b93508360208202850161416f85614005565b8060005b858110156141ab578484038952815161418c8582614127565b94506141978361413b565b925060208a01995050600181019050614173565b50829750879550505050505092915050565b600060208201905081810360008301526141d78184614148565b905092915050565b600060e0830160008301516141f76000860182614015565b50602083015161420a6020860182614024565b50604083015161421d6040860182614015565b50606083015184820360608601526142358282614044565b9150506080830151848203608086015261424f8282614044565b91505060a083015184820360a08601526142698282614044565b91505060c083015161427e60c0860182614015565b508091505092915050565b600060208201905081810360008301526142a381846141df565b905092915050565b6000602082840312156142c1576142c0613cc1565b5b60006142cf84828501613f41565b91505092915050565b600080fd5b600080fd5b7f4e487b7100000000000000000000000000000000000000000000000000000000600052604160045260246000fd5b61431a82613e09565b810181811067ffffffffffffffff82111715614339576143386142e2565b5b80604052505050565b600061434c613cb7565b90506143588282614311565b919050565b600067ffffffffffffffff821115614378576143776142e2565b5b61438182613e09565b9050602081019050919050565b82818337600083830152505050565b60006143b06143ab8461435d565b614342565b9050828152602081018484840111156143cc576143cb6142dd565b5b6143d784828561438e565b509392505050565b600082601f8301126143f4576143f36142d8565b5b813561440484826020860161439d565b91505092915050565b6000806000806080858703121561442757614426613cc1565b5b600085013567ffffffffffffffff81111561444557614444613cc6565b5b614451878288016143df565b945050602085013567ffffffffffffffff81111561447257614471613cc6565b5b61447e878288016143df565b935050604085013567ffffffffffffffff81111561449f5761449e613cc6565b5b6144ab878288016143df565b92505060606144bc87828801613e8c565b91505092959194509250565b6144d181613d50565b81146144dc57600080fd5b50565b6000813590506144ee816144c8565b92915050565b6000806040838503121561450b5761450a613cc1565b5b600061451985828601613f41565b925050602061452a858286016144df565b9150509250929050565b6000806040838503121561454b5761454a613cc1565b5b600061455985828601613e8c565b925050602061456a85828601613e8c565b9150509250929050565b600067ffffffffffffffff82111561458f5761458e6142e2565b5b61459882613e09565b9050602081019050919050565b60006145b86145b384614574565b614342565b9050828152602081018484840111156145d4576145d36142dd565b5b6145df84828561438e565b509392505050565b600082601f8301126145fc576145fb6142d8565b5b813561460c8482602086016145a5565b91505092915050565b6000806000806080858703121561462f5761462e613cc1565b5b600061463d87828801613f41565b945050602061464e87828801613f41565b935050604061465f87828801613e8c565b925050606085013567ffffffffffffffff8111156146805761467f613cc6565b5b61468c878288016145e7565b91505092959194509250565b600080604083850312156146af576146ae613cc1565b5b60006146bd85828601613f41565b92505060206146ce85828601613f41565b9150509250929050565b7f4e487b7100000000000000000000000000000000000000000000000000000000600052602260045260246000fd5b6000600282049050600182168061471f57607f821691505b60208210811415614733576147326146d8565b5b50919050565b7f4552433732313a20617070726f76656420717565727920666f72206e6f6e657860008201527f697374656e7420746f6b656e0000000000000000000000000000000000000000602082015250565b6000614795602c83613dc5565b91506147a082614739565b604082019050919050565b600060208201905081810360008301526147c481614788565b9050919050565b7f4552433732313a20617070726f76616c20746f2063757272656e74206f776e6560008201527f7200000000000000000000000000000000000000000000000000000000000000602082015250565b6000614827602183613dc5565b9150614832826147cb565b604082019050919050565b600060208201905081810360008301526148568161481a565b9050919050565b7f4552433732313a20617070726f76652063616c6c6572206973206e6f74206f7760008201527f6e6572206e6f7220617070726f76656420666f7220616c6c0000000000000000602082015250565b60006148b9603883613dc5565b91506148c48261485d565b604082019050919050565b600060208201905081810360008301526148e8816148ac565b9050919050565b7f4552433732313a207472616e736665722063616c6c6572206973206e6f74206f60008201527f776e6572206e6f7220617070726f766564000000000000000000000000000000602082015250565b600061494b603183613dc5565b9150614956826148ef565b604082019050919050565b6000602082019050818103600083015261497a8161493e565b9050919050565b7f455243373231456e756d657261626c653a206f776e657220696e646578206f7560008201527f74206f6620626f756e6473000000000000000000000000000000000000000000602082015250565b60006149dd602b83613dc5565b91506149e882614981565b604082019050919050565b60006020820190508181036000830152614a0c816149d0565b9050919050565b7f455243373231456e756d657261626c653a20676c6f62616c20696e646578206f60008201527f7574206f6620626f756e64730000000000000000000000000000000000000000602082015250565b6000614a6f602c83613dc5565b9150614a7a82614a13565b604082019050919050565b60006020820190508181036000830152614a9e81614a62565b9050919050565b7f4e487b7100000000000000000000000000000000000000000000000000000000600052603260045260246000fd5b7f4e487b7100000000000000000000000000000000000000000000000000000000600052601160045260246000fd5b6000614b0e82613d86565b9150614b1983613d86565b925082821015614b2c57614b2b614ad4565b5b828203905092915050565b6000614b4282613d86565b9150614b4d83613d86565b9250827fffffffffffffffffffffffffffffffffffffffffffffffffffffffffffffffff03821115614b8257614b81614ad4565b5b828201905092915050565b6000614b9882613d86565b91507fffffffffffffffffffffffffffffffffffffffffffffffffffffffffffffffff821415614bcb57614bca614ad4565b5b600182019050919050565b7f4552433732313a206f776e657220717565727920666f72206e6f6e657869737460008201527f656e7420746f6b656e0000000000000000000000000000000000000000000000602082015250565b6000614c32602983613dc5565b9150614c3d82614bd6565b604082019050919050565b60006020820190508181036000830152614c6181614c25565b9050919050565b7f4552433732313a2062616c616e636520717565727920666f7220746865207a6560008201527f726f206164647265737300000000000000000000000000000000000000000000602082015250565b6000614cc4602a83613dc5565b9150614ccf82614c68565b604082019050919050565b60006020820190508181036000830152614cf381614cb7565b9050919050565b7f457468657220746f6f206c6f7720666f72206d696e74696e6721000000000000600082015250565b6000614d30601a83613dc5565b9150614d3b82614cfa565b602082019050919050565b60006020820190508181036000830152614d5f81614d23565b9050919050565b600081905092915050565b6000614d7c82613dba565b614d868185614d66565b9350614d96818560208601613dd6565b80840191505092915050565b6000614dae8284614d71565b915081905092915050565b7f54686973204e465420697320616c7265616479206d696e746564210000000000600082015250565b6000614def601b83613dc5565b9150614dfa82614db9565b602082019050919050565b60006020820190508181036000830152614e1e81614de2565b9050919050565b7f53616c6573206e6f7420616c6c6f776564210000000000000000000000000000600082015250565b6000614e5b601283613dc5565b9150614e6682614e25565b602082019050919050565b60006020820190508181036000830152614e8a81614e4e565b9050919050565b6000608082019050614ea66000830187613d90565b614eb36020830186613d90565b8181036040830152614ec58185613e1a565b9050614ed46060830184613d90565b95945050505050565b7f457468657220746f6f206c6f7720666f72207075726368617365210000000000600082015250565b6000614f13601b83613dc5565b9150614f1e82614edd565b602082019050919050565b60006020820190508181036000830152614f4281614f06565b9050919050565b7f4f7065726174696f6e204e6f7420416c6c6f7765642100000000000000000000600082015250565b6000614f7f601683613dc5565b9150614f8a82614f49565b602082019050919050565b60006020820190508181036000830152614fae81614f72565b9050919050565b60008190508160005260206000209050919050565b60008154614fd781614707565b614fe18186613dc5565b94506001821660008114614ffc576001811461500e57615041565b60ff1983168652602086019350615041565b61501785614fb5565b60005b838110156150395781548189015260018201915060208101905061501a565b808801955050505b50505092915050565b600060808201905061505f6000830187613d90565b61506c6020830186613d90565b818103604083015261507e8185614fca565b905061508d6060830184613d90565b95945050505050565b7f457468657220746f6f206c6f7721000000000000000000000000000000000000600082015250565b60006150cc600e83613dc5565b91506150d782615096565b602082019050919050565b600060208201905081810360008301526150fb816150bf565b9050919050565b7f4552433732314d657461646174613a2055524920717565727920666f72206e6f60008201527f6e6578697374656e7420746f6b656e0000000000000000000000000000000000602082015250565b600061515e602f83613dc5565b915061516982615102565b604082019050919050565b6000602082019050818103600083015261518d81615151565b9050919050565b60006151a08285614d71565b91506151ac8284614d71565b91508190509392505050565b7f4f776e61626c653a206e6577206f776e657220697320746865207a65726f206160008201527f6464726573730000000000000000000000000000000000000000000000000000602082015250565b6000615214602683613dc5565b915061521f826151b8565b604082019050919050565b6000602082019050818103600083015261524381615207565b9050919050565b7f4552433732313a206f70657261746f7220717565727920666f72206e6f6e657860008201527f697374656e7420746f6b656e0000000000000000000000000000000000000000602082015250565b60006152a6602c83613dc5565b91506152b18261524a565b604082019050919050565b600060208201905081810360008301526152d581615299565b9050919050565b7f4552433732313a207472616e73666572206f6620746f6b656e2074686174206960008201527f73206e6f74206f776e0000000000000000000000000000000000000000000000602082015250565b6000615338602983613dc5565b9150615343826152dc565b604082019050919050565b600060208201905081810360008301526153678161532b565b9050919050565b7f4552433732313a207472616e7366657220746f20746865207a65726f2061646460008201527f7265737300000000000000000000000000000000000000000000000000000000602082015250565b60006153ca602483613dc5565b91506153d58261536e565b604082019050919050565b600060208201905081810360008301526153f9816153bd565b9050919050565b7f4f776e61626c653a2063616c6c6572206973206e6f7420746865206f776e6572600082015250565b6000615436602083613dc5565b915061544182615400565b602082019050919050565b6000602082019050818103600083015261546581615429565b9050919050565b600081905092915050565b50565b600061548760008361546c565b915061549282615477565b600082019050919050565b60006154a88261547a565b9150819050919050565b7f4552433732313a20617070726f766520746f2063616c6c657200000000000000600082015250565b60006154e8601983613dc5565b91506154f3826154b2565b602082019050919050565b60006020820190508181036000830152615517816154db565b9050919050565b7f4552433732313a207472616e7366657220746f206e6f6e20455243373231526560008201527f63656976657220696d706c656d656e7465720000000000000000000000000000602082015250565b600061557a603283613dc5565b91506155858261551e565b604082019050919050565b600060208201905081810360008301526155a98161556d565b9050919050565b7f4e487b7100000000000000000000000000000000000000000000000000000000600052601260045260246000fd5b600081519050919050565b600082825260208201905092915050565b6000615606826155df565b61561081856155ea565b9350615620818560208601613dd6565b61562981613e09565b840191505092915050565b60006080820190506156496000830187613f00565b6156566020830186613f00565b6156636040830185613d90565b818103606083015261567581846155fb565b905095945050505050565b60008151905061568f81613cf7565b92915050565b6000602082840312156156ab576156aa613cc1565b5b60006156b984828501615680565b91505092915050565b7f4e487b7100000000000000000000000000000000000000000000000000000000600052603160045260246000fd5b7f4552433732313a206d696e7420746f20746865207a65726f2061646472657373600082015250565b6000615727602083613dc5565b9150615732826156f1565b602082019050919050565b600060208201905081810360008301526157568161571a565b9050919050565b7f4552433732313a20746f6b656e20616c7265616479206d696e74656400000000600082015250565b6000615793601c83613dc5565b915061579e8261575d565b602082019050919050565b600060208201905081810360008301526157c281615786565b905091905056fea26469706673582212208bf5f54a03ace0a3f0e3b8eb8891c09acdab2a8a959b6f302597be208332491664736f6c634300080b0033",
  "immutableReferences": {},
  "source": "// SPDX-License-Identifier: MIT\npragma solidity >=0.7.0 <0.9.0;\n\nimport \"./ERC721.sol\";\nimport \"./ERC721Enumerable.sol\";\nimport \"@openzeppelin/contracts/access/Ownable.sol\";\n\ncontract MarcadoNFT is ERC721Enumerable, Ownable {\n    using Strings for uint256;\n    mapping(string => uint8) existingURIs;\n    mapping(uint256 => address) public holderOf;\n     //This mapping maps Id to token info and is helpful when retrieving details about a Id\n    mapping(uint256 => TransactionStruct) private idToTransactionStruct;\n    uint256 public supply = 0;\n    uint256 public totalTx = 0;\n    uint256 public cost = 0.01 ether;\n\n    event Sale(\n        uint256 id,\n        address indexed owner,\n        uint256 cost,\n        string metadataURI,\n        uint256 timestamp\n    );\n\n    struct TransactionStruct {\n        uint256 id;\n        address owner;\n        uint256 cost;\n        string title;\n        string description;\n        string metadataURI;\n        uint256 timestamp;\n    }\n\n    TransactionStruct[] transactions;\n    TransactionStruct[] minted;\n\n    constructor(\n        string memory _name,\n        string memory _symbol\n\n    ) ERC721(_name, _symbol) {}\n\n    function payToMint(\n        string memory title,\n        string memory description,\n        string memory metadataURI,\n        uint256 salesPrice\n    ) external payable {\n        require(msg.value >= cost, \"Ether too low for minting!\");\n        require(existingURIs[metadataURI] == 0, \"This NFT is already minted!\");\n        require(msg.sender != owner(), \"Sales not allowed!\");\n        \n        payTo(owner(), (msg.value));\n        supply++;\n\n        minted.push(\n            TransactionStruct(\n                supply,\n                msg.sender,\n                salesPrice,\n                title,\n                description,\n                metadataURI,\n                block.timestamp\n            )\n        );\n        idToTransactionStruct[supply]=TransactionStruct(\n              supply,\n                msg.sender,\n                salesPrice,\n                title,\n                description,\n                metadataURI,\n                block.timestamp\n        );\n\n        emit Sale(\n            supply,\n            msg.sender,\n            msg.value,\n            metadataURI,\n            block.timestamp\n        );\n\n        _safeMint(msg.sender, supply);\n        existingURIs[metadataURI] = 1;\n        holderOf[supply] = msg.sender;\n    }\n\n    function payToBuy(uint256 id) external payable {\n        require(msg.value >= minted[id - 1].cost, \"Ether too low for purchase!\");\n        require(msg.sender != minted[id - 1].owner, \"Operation Not Allowed!\");\n\n        payTo(minted[id - 1].owner, msg.value);\n\n        totalTx++;\n\n        transactions.push(\n            TransactionStruct(\n                totalTx,\n                msg.sender,\n                msg.value,\n                minted[id - 1].title,\n                minted[id - 1].description,\n                minted[id - 1].metadataURI,\n                block.timestamp\n            )\n        );\n\n        emit Sale(\n            totalTx,\n            msg.sender,\n            msg.value,\n            minted[id - 1].metadataURI,\n            block.timestamp\n        );\n\n        minted[id - 1].owner = msg.sender;\n        idToTransactionStruct[supply].owner = msg.sender;\n    }\n\n    function changePrice(uint256 id, uint256 newPrice) external returns (bool) {\n        require(newPrice > 0 ether, \"Ether too low!\");\n        require(msg.sender == minted[id - 1].owner, \"Operation Not Allowed!\");\n\n        minted[id - 1].cost = newPrice;\n        return true;\n    }\n\n    function payTo(address to, uint256 amount) internal {\n        (bool success, ) = payable(to).call{value: amount}(\"\");\n        require(success);\n    }\n\n    function getAllNFTs() external view returns (TransactionStruct[] memory) {\n        return minted;\n    }\n\n    function getNFT(uint256 id) external view returns (TransactionStruct memory) {\n        return minted[id - 1];\n    }\n    //Returns all the NFTs that the current user is owner \n    function getMyNFTs() public view returns (TransactionStruct[] memory) {\n      uint itemCount = 0;\n      uint currentIndex = 0;\n      uint currentId;\n\n       for(uint i=0; i < minted.length; i++){\n          if(idToTransactionStruct[i+1].owner == msg.sender){\n              itemCount += 1;\n          }\n        }\n\n        TransactionStruct [] memory items =new TransactionStruct[](itemCount);\n\n        for(uint i=0; i < minted.length; i++){\n            if(idToTransactionStruct[i+1].owner == msg.sender){\n                currentId = i+1;\n                TransactionStruct storage currentItem = idToTransactionStruct[currentId];\n                items[currentIndex] = currentItem;\n                currentIndex += 1;\n              }\n        }\n        return items;\n\n    }\n\n    function getAllTransactions() external view returns (TransactionStruct[] memory) {\n        return transactions;\n    }\n}",
  "sourcePath": "/home/galien/portfolio/nft-market-place/MarcadoNFT/src/contracts/MarcadoNFT.sol",
  "compiler": {
    "name": "solc",
    "version": "0.8.11+commit.d7f03943.Emscripten.clang"
  },
  "schemaVersion": "3.4.11",
  "updatedAt": "2023-01-02T23:52:03.854Z",
  "networkType": "ethereum",
  "devdoc": {
    "kind": "dev",
    "methods": {
      "approve(address,uint256)": {
        "details": "See {IERC721-approve}."
      },
      "balanceOf(address)": {
        "details": "See {IERC721-balanceOf}."
      },
      "getApproved(uint256)": {
        "details": "See {IERC721-getApproved}."
      },
      "isApprovedForAll(address,address)": {
        "details": "See {IERC721-isApprovedForAll}."
      },
      "name()": {
        "details": "See {IERC721Metadata-name}."
      },
      "owner()": {
        "details": "Returns the address of the current owner."
      },
      "ownerOf(uint256)": {
        "details": "See {IERC721-ownerOf}."
      },
      "renounceOwnership()": {
        "details": "Leaves the contract without owner. It will not be possible to call `onlyOwner` functions anymore. Can only be called by the current owner. NOTE: Renouncing ownership will leave the contract without an owner, thereby removing any functionality that is only available to the owner."
      },
      "safeTransferFrom(address,address,uint256)": {
        "details": "See {IERC721-safeTransferFrom}."
      },
      "safeTransferFrom(address,address,uint256,bytes)": {
        "details": "See {IERC721-safeTransferFrom}."
      },
      "setApprovalForAll(address,bool)": {
        "details": "See {IERC721-setApprovalForAll}."
      },
      "supportsInterface(bytes4)": {
        "details": "See {IERC165-supportsInterface}."
      },
      "symbol()": {
        "details": "See {IERC721Metadata-symbol}."
      },
      "tokenByIndex(uint256)": {
        "details": "See {IERC721Enumerable-tokenByIndex}."
      },
      "tokenOfOwnerByIndex(address,uint256)": {
        "details": "See {IERC721Enumerable-tokenOfOwnerByIndex}."
      },
      "tokenURI(uint256)": {
        "details": "See {IERC721Metadata-tokenURI}."
      },
      "totalSupply()": {
        "details": "See {IERC721Enumerable-totalSupply}."
      },
      "transferFrom(address,address,uint256)": {
        "details": "See {IERC721-transferFrom}."
      },
      "transferOwnership(address)": {
        "details": "Transfers ownership of the contract to a new account (`newOwner`). Can only be called by the current owner."
      }
    },
    "version": 1
  },
  "userdoc": {
    "kind": "user",
    "methods": {},
    "version": 1
  }
}