{
  "contractName": "MarcadoNFT",
  "abi": [
    {
      "inputs": [
        {
          "internalType": "string",
          "name": "_name",
          "type": "string"
        },
        {
          "internalType": "string",
          "name": "_symbol",
          "type": "string"
        },
        {
          "internalType": "uint256",
          "name": "_royalityFee",
          "type": "uint256"
        },
        {
          "internalType": "address",
          "name": "_artist",
          "type": "address"
        }
      ],
      "stateMutability": "nonpayable",
      "type": "constructor"
    },
    {
      "anonymous": false,
      "inputs": [
        {
          "indexed": true,
          "internalType": "address",
          "name": "owner",
          "type": "address"
        },
        {
          "indexed": true,
          "internalType": "address",
          "name": "approved",
          "type": "address"
        },
        {
          "indexed": true,
          "internalType": "uint256",
          "name": "tokenId",
          "type": "uint256"
        }
      ],
      "name": "Approval",
      "type": "event"
    },
    {
      "anonymous": false,
      "inputs": [
        {
          "indexed": true,
          "internalType": "address",
          "name": "owner",
          "type": "address"
        },
        {
          "indexed": true,
          "internalType": "address",
          "name": "operator",
          "type": "address"
        },
        {
          "indexed": false,
          "internalType": "bool",
          "name": "approved",
          "type": "bool"
        }
      ],
      "name": "ApprovalForAll",
      "type": "event"
    },
    {
      "anonymous": false,
      "inputs": [
        {
          "indexed": true,
          "internalType": "address",
          "name": "previousOwner",
          "type": "address"
        },
        {
          "indexed": true,
          "internalType": "address",
          "name": "newOwner",
          "type": "address"
        }
      ],
      "name": "OwnershipTransferred",
      "type": "event"
    },
    {
      "anonymous": false,
      "inputs": [
        {
          "indexed": false,
          "internalType": "uint256",
          "name": "id",
          "type": "uint256"
        },
        {
          "indexed": true,
          "internalType": "address",
          "name": "owner",
          "type": "address"
        },
        {
          "indexed": false,
          "internalType": "uint256",
          "name": "cost",
          "type": "uint256"
        },
        {
          "indexed": false,
          "internalType": "string",
          "name": "metadataURI",
          "type": "string"
        },
        {
          "indexed": false,
          "internalType": "uint256",
          "name": "timestamp",
          "type": "uint256"
        }
      ],
      "name": "Sale",
      "type": "event"
    },
    {
      "anonymous": false,
      "inputs": [
        {
          "indexed": true,
          "internalType": "address",
          "name": "from",
          "type": "address"
        },
        {
          "indexed": true,
          "internalType": "address",
          "name": "to",
          "type": "address"
        },
        {
          "indexed": true,
          "internalType": "uint256",
          "name": "tokenId",
          "type": "uint256"
        }
      ],
      "name": "Transfer",
      "type": "event"
    },
    {
      "inputs": [
        {
          "internalType": "address",
          "name": "to",
          "type": "address"
        },
        {
          "internalType": "uint256",
          "name": "tokenId",
          "type": "uint256"
        }
      ],
      "name": "approve",
      "outputs": [],
      "stateMutability": "nonpayable",
      "type": "function"
    },
    {
      "inputs": [],
      "name": "artist",
      "outputs": [
        {
          "internalType": "address",
          "name": "",
          "type": "address"
        }
      ],
      "stateMutability": "view",
      "type": "function",
      "constant": true
    },
    {
      "inputs": [
        {
          "internalType": "address",
          "name": "owner",
          "type": "address"
        }
      ],
      "name": "balanceOf",
      "outputs": [
        {
          "internalType": "uint256",
          "name": "",
          "type": "uint256"
        }
      ],
      "stateMutability": "view",
      "type": "function",
      "constant": true
    },
    {
      "inputs": [],
      "name": "cost",
      "outputs": [
        {
          "internalType": "uint256",
          "name": "",
          "type": "uint256"
        }
      ],
      "stateMutability": "view",
      "type": "function",
      "constant": true
    },
    {
      "inputs": [
        {
          "internalType": "uint256",
          "name": "tokenId",
          "type": "uint256"
        }
      ],
      "name": "getApproved",
      "outputs": [
        {
          "internalType": "address",
          "name": "",
          "type": "address"
        }
      ],
      "stateMutability": "view",
      "type": "function",
      "constant": true
    },
    {
      "inputs": [
        {
          "internalType": "uint256",
          "name": "",
          "type": "uint256"
        }
      ],
      "name": "holderOf",
      "outputs": [
        {
          "internalType": "address",
          "name": "",
          "type": "address"
        }
      ],
      "stateMutability": "view",
      "type": "function",
      "constant": true
    },
    {
      "inputs": [
        {
          "internalType": "address",
          "name": "owner",
          "type": "address"
        },
        {
          "internalType": "address",
          "name": "operator",
          "type": "address"
        }
      ],
      "name": "isApprovedForAll",
      "outputs": [
        {
          "internalType": "bool",
          "name": "",
          "type": "bool"
        }
      ],
      "stateMutability": "view",
      "type": "function",
      "constant": true
    },
    {
      "inputs": [],
      "name": "name",
      "outputs": [
        {
          "internalType": "string",
          "name": "",
          "type": "string"
        }
      ],
      "stateMutability": "view",
      "type": "function",
      "constant": true
    },
    {
      "inputs": [],
      "name": "owner",
      "outputs": [
        {
          "internalType": "address",
          "name": "",
          "type": "address"
        }
      ],
      "stateMutability": "view",
      "type": "function",
      "constant": true
    },
    {
      "inputs": [
        {
          "internalType": "uint256",
          "name": "tokenId",
          "type": "uint256"
        }
      ],
      "name": "ownerOf",
      "outputs": [
        {
          "internalType": "address",
          "name": "",
          "type": "address"
        }
      ],
      "stateMutability": "view",
      "type": "function",
      "constant": true
    },
    {
      "inputs": [],
      "name": "renounceOwnership",
      "outputs": [],
      "stateMutability": "nonpayable",
      "type": "function"
    },
    {
      "inputs": [],
      "name": "royalityFee",
      "outputs": [
        {
          "internalType": "uint256",
          "name": "",
          "type": "uint256"
        }
      ],
      "stateMutability": "view",
      "type": "function",
      "constant": true
    },
    {
      "inputs": [
        {
          "internalType": "address",
          "name": "from",
          "type": "address"
        },
        {
          "internalType": "address",
          "name": "to",
          "type": "address"
        },
        {
          "internalType": "uint256",
          "name": "tokenId",
          "type": "uint256"
        }
      ],
      "name": "safeTransferFrom",
      "outputs": [],
      "stateMutability": "payable",
      "type": "function",
      "payable": true
    },
    {
      "inputs": [
        {
          "internalType": "address",
          "name": "from",
          "type": "address"
        },
        {
          "internalType": "address",
          "name": "to",
          "type": "address"
        },
        {
          "internalType": "uint256",
          "name": "tokenId",
          "type": "uint256"
        },
        {
          "internalType": "bytes",
          "name": "_data",
          "type": "bytes"
        }
      ],
      "name": "safeTransferFrom",
      "outputs": [],
      "stateMutability": "payable",
      "type": "function",
      "payable": true
    },
    {
      "inputs": [
        {
          "internalType": "address",
          "name": "operator",
          "type": "address"
        },
        {
          "internalType": "bool",
          "name": "approved",
          "type": "bool"
        }
      ],
      "name": "setApprovalForAll",
      "outputs": [],
      "stateMutability": "nonpayable",
      "type": "function"
    },
    {
      "inputs": [],
      "name": "supply",
      "outputs": [
        {
          "internalType": "uint256",
          "name": "",
          "type": "uint256"
        }
      ],
      "stateMutability": "view",
      "type": "function",
      "constant": true
    },
    {
      "inputs": [
        {
          "internalType": "bytes4",
          "name": "interfaceId",
          "type": "bytes4"
        }
      ],
      "name": "supportsInterface",
      "outputs": [
        {
          "internalType": "bool",
          "name": "",
          "type": "bool"
        }
      ],
      "stateMutability": "view",
      "type": "function",
      "constant": true
    },
    {
      "inputs": [],
      "name": "symbol",
      "outputs": [
        {
          "internalType": "string",
          "name": "",
          "type": "string"
        }
      ],
      "stateMutability": "view",
      "type": "function",
      "constant": true
    },
    {
      "inputs": [
        {
          "internalType": "uint256",
          "name": "index",
          "type": "uint256"
        }
      ],
      "name": "tokenByIndex",
      "outputs": [
        {
          "internalType": "uint256",
          "name": "",
          "type": "uint256"
        }
      ],
      "stateMutability": "view",
      "type": "function",
      "constant": true
    },
    {
      "inputs": [
        {
          "internalType": "address",
          "name": "owner",
          "type": "address"
        },
        {
          "internalType": "uint256",
          "name": "index",
          "type": "uint256"
        }
      ],
      "name": "tokenOfOwnerByIndex",
      "outputs": [
        {
          "internalType": "uint256",
          "name": "",
          "type": "uint256"
        }
      ],
      "stateMutability": "view",
      "type": "function",
      "constant": true
    },
    {
      "inputs": [
        {
          "internalType": "uint256",
          "name": "tokenId",
          "type": "uint256"
        }
      ],
      "name": "tokenURI",
      "outputs": [
        {
          "internalType": "string",
          "name": "",
          "type": "string"
        }
      ],
      "stateMutability": "view",
      "type": "function",
      "constant": true
    },
    {
      "inputs": [],
      "name": "totalSupply",
      "outputs": [
        {
          "internalType": "uint256",
          "name": "",
          "type": "uint256"
        }
      ],
      "stateMutability": "view",
      "type": "function",
      "constant": true
    },
    {
      "inputs": [],
      "name": "totalTx",
      "outputs": [
        {
          "internalType": "uint256",
          "name": "",
          "type": "uint256"
        }
      ],
      "stateMutability": "view",
      "type": "function",
      "constant": true
    },
    {
      "inputs": [
        {
          "internalType": "address",
          "name": "from",
          "type": "address"
        },
        {
          "internalType": "address",
          "name": "to",
          "type": "address"
        },
        {
          "internalType": "uint256",
          "name": "tokenId",
          "type": "uint256"
        }
      ],
      "name": "transferFrom",
      "outputs": [],
      "stateMutability": "payable",
      "type": "function",
      "payable": true
    },
    {
      "inputs": [
        {
          "internalType": "address",
          "name": "newOwner",
          "type": "address"
        }
      ],
      "name": "transferOwnership",
      "outputs": [],
      "stateMutability": "nonpayable",
      "type": "function"
    },
    {
      "inputs": [
        {
          "internalType": "string",
          "name": "title",
          "type": "string"
        },
        {
          "internalType": "string",
          "name": "description",
          "type": "string"
        },
        {
          "internalType": "string",
          "name": "metadataURI",
          "type": "string"
        },
        {
          "internalType": "uint256",
          "name": "salesPrice",
          "type": "uint256"
        }
      ],
      "name": "payToMint",
      "outputs": [],
      "stateMutability": "payable",
      "type": "function",
      "payable": true
    },
    {
      "inputs": [
        {
          "internalType": "uint256",
          "name": "id",
          "type": "uint256"
        }
      ],
      "name": "payToBuy",
      "outputs": [],
      "stateMutability": "payable",
      "type": "function",
      "payable": true
    },
    {
      "inputs": [
        {
          "internalType": "uint256",
          "name": "id",
          "type": "uint256"
        },
        {
          "internalType": "uint256",
          "name": "newPrice",
          "type": "uint256"
        }
      ],
      "name": "changePrice",
      "outputs": [
        {
          "internalType": "bool",
          "name": "",
          "type": "bool"
        }
      ],
      "stateMutability": "nonpayable",
      "type": "function"
    },
    {
      "inputs": [],
      "name": "getAllNFTs",
      "outputs": [
        {
          "components": [
            {
              "internalType": "uint256",
              "name": "id",
              "type": "uint256"
            },
            {
              "internalType": "address",
              "name": "owner",
              "type": "address"
            },
            {
              "internalType": "uint256",
              "name": "cost",
              "type": "uint256"
            },
            {
              "internalType": "string",
              "name": "title",
              "type": "string"
            },
            {
              "internalType": "string",
              "name": "description",
              "type": "string"
            },
            {
              "internalType": "string",
              "name": "metadataURI",
              "type": "string"
            },
            {
              "internalType": "uint256",
              "name": "timestamp",
              "type": "uint256"
            }
          ],
          "internalType": "struct MarcadoNFT.TransactionStruct[]",
          "name": "",
          "type": "tuple[]"
        }
      ],
      "stateMutability": "view",
      "type": "function",
      "constant": true
    },
    {
      "inputs": [
        {
          "internalType": "uint256",
          "name": "id",
          "type": "uint256"
        }
      ],
      "name": "getNFT",
      "outputs": [
        {
          "components": [
            {
              "internalType": "uint256",
              "name": "id",
              "type": "uint256"
            },
            {
              "internalType": "address",
              "name": "owner",
              "type": "address"
            },
            {
              "internalType": "uint256",
              "name": "cost",
              "type": "uint256"
            },
            {
              "internalType": "string",
              "name": "title",
              "type": "string"
            },
            {
              "internalType": "string",
              "name": "description",
              "type": "string"
            },
            {
              "internalType": "string",
              "name": "metadataURI",
              "type": "string"
            },
            {
              "internalType": "uint256",
              "name": "timestamp",
              "type": "uint256"
            }
          ],
          "internalType": "struct MarcadoNFT.TransactionStruct",
          "name": "",
          "type": "tuple"
        }
      ],
      "stateMutability": "view",
      "type": "function",
      "constant": true
    },
    {
      "inputs": [],
      "name": "getMyNFTs",
      "outputs": [
        {
          "components": [
            {
              "internalType": "uint256",
              "name": "id",
              "type": "uint256"
            },
            {
              "internalType": "address",
              "name": "owner",
              "type": "address"
            },
            {
              "internalType": "uint256",
              "name": "cost",
              "type": "uint256"
            },
            {
              "internalType": "string",
              "name": "title",
              "type": "string"
            },
            {
              "internalType": "string",
              "name": "description",
              "type": "string"
            },
            {
              "internalType": "string",
              "name": "metadataURI",
              "type": "string"
            },
            {
              "internalType": "uint256",
              "name": "timestamp",
              "type": "uint256"
            }
          ],
          "internalType": "struct MarcadoNFT.TransactionStruct[]",
          "name": "",
          "type": "tuple[]"
        }
      ],
      "stateMutability": "view",
      "type": "function",
      "constant": true
    },
    {
      "inputs": [],
      "name": "getAllTransactions",
      "outputs": [
        {
          "components": [
            {
              "internalType": "uint256",
              "name": "id",
              "type": "uint256"
            },
            {
              "internalType": "address",
              "name": "owner",
              "type": "address"
            },
            {
              "internalType": "uint256",
              "name": "cost",
              "type": "uint256"
            },
            {
              "internalType": "string",
              "name": "title",
              "type": "string"
            },
            {
              "internalType": "string",
              "name": "description",
              "type": "string"
            },
            {
              "internalType": "string",
              "name": "metadataURI",
              "type": "string"
            },
            {
              "internalType": "uint256",
              "name": "timestamp",
              "type": "uint256"
            }
          ],
          "internalType": "struct MarcadoNFT.TransactionStruct[]",
          "name": "",
          "type": "tuple[]"
        }
      ],
      "stateMutability": "view",
      "type": "function",
      "constant": true
    }
  ],
  "bytecode": "0x608060405260006010556000601155662386f26fc100006012553480156200002657600080fd5b5060405162005fa238038062005fa283398181016040528101906200004c9190620004af565b8383816000908051906020019062000066929190620001c2565b5080600190805190602001906200007f929190620001c2565b505050620000a262000096620000f460201b60201c565b620000fc60201b60201c565b81600f8190555080600e60006101000a81548173ffffffffffffffffffffffffffffffffffffffff021916908373ffffffffffffffffffffffffffffffffffffffff16021790555050505050620005c4565b600033905090565b6000600a60009054906101000a900473ffffffffffffffffffffffffffffffffffffffff16905081600a60006101000a81548173ffffffffffffffffffffffffffffffffffffffff021916908373ffffffffffffffffffffffffffffffffffffffff1602179055508173ffffffffffffffffffffffffffffffffffffffff168173ffffffffffffffffffffffffffffffffffffffff167f8be0079c531659141344cd1fd0a4f28419497f9722a3daafe3b4186f6b6457e060405160405180910390a35050565b828054620001d0906200058e565b90600052602060002090601f016020900481019282620001f4576000855562000240565b82601f106200020f57805160ff191683800117855562000240565b8280016001018555821562000240579182015b828111156200023f57825182559160200191906001019062000222565b5b5090506200024f919062000253565b5090565b5b808211156200026e57600081600090555060010162000254565b5090565b6000604051905090565b600080fd5b600080fd5b600080fd5b600080fd5b6000601f19601f8301169050919050565b7f4e487b7100000000000000000000000000000000000000000000000000000000600052604160045260246000fd5b620002db8262000290565b810181811067ffffffffffffffff82111715620002fd57620002fc620002a1565b5b80604052505050565b60006200031262000272565b9050620003208282620002d0565b919050565b600067ffffffffffffffff821115620003435762000342620002a1565b5b6200034e8262000290565b9050602081019050919050565b60005b838110156200037b5780820151818401526020810190506200035e565b838111156200038b576000848401525b50505050565b6000620003a8620003a28462000325565b62000306565b905082815260208101848484011115620003c757620003c66200028b565b5b620003d48482856200035b565b509392505050565b600082601f830112620003f457620003f362000286565b5b81516200040684826020860162000391565b91505092915050565b6000819050919050565b62000424816200040f565b81146200043057600080fd5b50565b600081519050620004448162000419565b92915050565b600073ffffffffffffffffffffffffffffffffffffffff82169050919050565b600062000477826200044a565b9050919050565b62000489816200046a565b81146200049557600080fd5b50565b600081519050620004a9816200047e565b92915050565b60008060008060808587031215620004cc57620004cb6200027c565b5b600085015167ffffffffffffffff811115620004ed57620004ec62000281565b5b620004fb87828801620003dc565b945050602085015167ffffffffffffffff8111156200051f576200051e62000281565b5b6200052d87828801620003dc565b9350506040620005408782880162000433565b9250506060620005538782880162000498565b91505092959194509250565b7f4e487b7100000000000000000000000000000000000000000000000000000000600052602260045260246000fd5b60006002820490506001821680620005a757607f821691505b60208210811415620005be57620005bd6200055f565b5b50919050565b6159ce80620005d46000396000f3fe6080604052600436106101e35760003560e01c80636352211e11610102578063a22cb46511610095578063dbacc23711610064578063dbacc237146106db578063e0391b0914610718578063e985e9c514610743578063f2fde38b14610780576101e3565b8063a22cb4651461061c578063b3de019c14610645578063b88d4fde14610682578063c87b56dd1461069e576101e3565b8063799c0c1e116100d1578063799c0c1e1461058e5780638da5cb5b146105aa57806395d89b41146105d55780639ba4b01714610600576101e3565b80636352211e146104d257806370a082311461050f578063715018a61461054c5780637220cf3914610563576101e3565b806327506f531161017a57806343bc16121161014957806343bc1612146104025780634f6ccce71461042d578063576f7ea71461046a578063629cb2e4146104a7576101e3565b806327506f53146103535780632f745c591461037e578063326bb4ad146103bb57806342842e0e146103e6576101e3565b8063095ea7b3116101b6578063095ea7b3146102b857806313faede6146102e157806318160ddd1461030c57806323b872dd14610337576101e3565b806301ffc9a7146101e8578063047fc9aa1461022557806306fdde0314610250578063081812fc1461027b575b600080fd5b3480156101f457600080fd5b5061020f600480360381019061020a9190613e67565b6107a9565b60405161021c9190613eaf565b60405180910390f35b34801561023157600080fd5b5061023a610823565b6040516102479190613ee3565b60405180910390f35b34801561025c57600080fd5b50610265610829565b6040516102729190613f97565b60405180910390f35b34801561028757600080fd5b506102a2600480360381019061029d9190613fe5565b6108bb565b6040516102af9190614053565b60405180910390f35b3480156102c457600080fd5b506102df60048036038101906102da919061409a565b610940565b005b3480156102ed57600080fd5b506102f6610a58565b6040516103039190613ee3565b60405180910390f35b34801561031857600080fd5b50610321610a5e565b60405161032e9190613ee3565b60405180910390f35b610351600480360381019061034c91906140da565b610a6b565b005b34801561035f57600080fd5b50610368610acb565b6040516103759190614301565b60405180910390f35b34801561038a57600080fd5b506103a560048036038101906103a0919061409a565b610d54565b6040516103b29190613ee3565b60405180910390f35b3480156103c757600080fd5b506103d0610df9565b6040516103dd9190613ee3565b60405180910390f35b61040060048036038101906103fb91906140da565b610dff565b005b34801561040e57600080fd5b50610417610e1f565b6040516104249190614053565b60405180910390f35b34801561043957600080fd5b50610454600480360381019061044f9190613fe5565b610e45565b6040516104619190613ee3565b60405180910390f35b34801561047657600080fd5b50610491600480360381019061048c9190613fe5565b610eb6565b60405161049e91906143cd565b60405180910390f35b3480156104b357600080fd5b506104bc611128565b6040516104c99190614301565b60405180910390f35b3480156104de57600080fd5b506104f960048036038101906104f49190613fe5565b611563565b6040516105069190614053565b60405180910390f35b34801561051b57600080fd5b50610536600480360381019061053191906143ef565b611615565b6040516105439190613ee3565b60405180910390f35b34801561055857600080fd5b506105616116cd565b005b34801561056f57600080fd5b506105786116e1565b6040516105859190613ee3565b60405180910390f35b6105a860048036038101906105a39190614551565b6116e7565b005b3480156105b657600080fd5b506105bf611bd9565b6040516105cc9190614053565b60405180910390f35b3480156105e157600080fd5b506105ea611c03565b6040516105f79190613f97565b60405180910390f35b61061a60048036038101906106159190613fe5565b611c95565b005b34801561062857600080fd5b50610643600480360381019061063e9190614638565b612341565b005b34801561065157600080fd5b5061066c60048036038101906106679190614678565b612357565b6040516106799190613eaf565b60405180910390f35b61069c60048036038101906106979190614759565b61249a565b005b3480156106aa57600080fd5b506106c560048036038101906106c09190613fe5565b6124fc565b6040516106d29190613f97565b60405180910390f35b3480156106e757600080fd5b5061070260048036038101906106fd9190613fe5565b6125a3565b60405161070f9190614053565b60405180910390f35b34801561072457600080fd5b5061072d6125d6565b60405161073a9190614301565b60405180910390f35b34801561074f57600080fd5b5061076a600480360381019061076591906147dc565b61285f565b6040516107779190613eaf565b60405180910390f35b34801561078c57600080fd5b506107a760048036038101906107a291906143ef565b6128f3565b005b60007f780e9d63000000000000000000000000000000000000000000000000000000007bffffffffffffffffffffffffffffffffffffffffffffffffffffffff1916827bffffffffffffffffffffffffffffffffffffffffffffffffffffffff1916148061081c575061081b82612977565b5b9050919050565b60105481565b6060600080546108389061484b565b80601f01602080910402602001604051908101604052809291908181526020018280546108649061484b565b80156108b15780601f10610886576101008083540402835291602001916108b1565b820191906000526020600020905b81548152906001019060200180831161089457829003601f168201915b5050505050905090565b60006108c682612a59565b610905576040517f08c379a00000000000000000000000000000000000000000000000000000000081526004016108fc906148ef565b60405180910390fd5b6004600083815260200190815260200160002060009054906101000a900473ffffffffffffffffffffffffffffffffffffffff169050919050565b600061094b82611563565b90508073ffffffffffffffffffffffffffffffffffffffff168373ffffffffffffffffffffffffffffffffffffffff1614156109bc576040517f08c379a00000000000000000000000000000000000000000000000000000000081526004016109b390614981565b60405180910390fd5b8073ffffffffffffffffffffffffffffffffffffffff166109db612ac5565b73ffffffffffffffffffffffffffffffffffffffff161480610a0a5750610a0981610a04612ac5565b61285f565b5b610a49576040517f08c379a0000000000000000000000000000000000000000000000000000000008152600401610a4090614a13565b60405180910390fd5b610a538383612acd565b505050565b60125481565b6000600880549050905090565b610a7c610a76612ac5565b82612b86565b610abb576040517f08c379a0000000000000000000000000000000000000000000000000000000008152600401610ab290614aa5565b60405180910390fd5b610ac6838383612c64565b505050565b60606013805480602002602001604051908101604052809291908181526020016000905b82821015610d4b57838290600052602060002090600702016040518060e0016040529081600082015481526020016001820160009054906101000a900473ffffffffffffffffffffffffffffffffffffffff1673ffffffffffffffffffffffffffffffffffffffff1673ffffffffffffffffffffffffffffffffffffffff16815260200160028201548152602001600382018054610b8c9061484b565b80601f0160208091040260200160405190810160405280929190818152602001828054610bb89061484b565b8015610c055780601f10610bda57610100808354040283529160200191610c05565b820191906000526020600020905b815481529060010190602001808311610be857829003601f168201915b50505050508152602001600482018054610c1e9061484b565b80601f0160208091040260200160405190810160405280929190818152602001828054610c4a9061484b565b8015610c975780601f10610c6c57610100808354040283529160200191610c97565b820191906000526020600020905b815481529060010190602001808311610c7a57829003601f168201915b50505050508152602001600582018054610cb09061484b565b80601f0160208091040260200160405190810160405280929190818152602001828054610cdc9061484b565b8015610d295780601f10610cfe57610100808354040283529160200191610d29565b820191906000526020600020905b815481529060010190602001808311610d0c57829003601f168201915b5050505050815260200160068201548152505081526020019060010190610aef565b50505050905090565b6000610d5f83611615565b8210610da0576040517f08c379a0000000000000000000000000000000000000000000000000000000008152600401610d9790614b37565b60405180910390fd5b600660008473ffffffffffffffffffffffffffffffffffffffff1673ffffffffffffffffffffffffffffffffffffffff168152602001908152602001600020600083815260200190815260200160002054905092915050565b600f5481565b610e1a8383836040518060200160405280600081525061249a565b505050565b600e60009054906101000a900473ffffffffffffffffffffffffffffffffffffffff1681565b6000610e4f610a5e565b8210610e90576040517f08c379a0000000000000000000000000000000000000000000000000000000008152600401610e8790614bc9565b60405180910390fd5b60088281548110610ea457610ea3614be9565b5b90600052602060002001549050919050565b610ebe613d05565b6014600183610ecd9190614c47565b81548110610ede57610edd614be9565b5b90600052602060002090600702016040518060e0016040529081600082015481526020016001820160009054906101000a900473ffffffffffffffffffffffffffffffffffffffff1673ffffffffffffffffffffffffffffffffffffffff1673ffffffffffffffffffffffffffffffffffffffff16815260200160028201548152602001600382018054610f719061484b565b80601f0160208091040260200160405190810160405280929190818152602001828054610f9d9061484b565b8015610fea5780601f10610fbf57610100808354040283529160200191610fea565b820191906000526020600020905b815481529060010190602001808311610fcd57829003601f168201915b505050505081526020016004820180546110039061484b565b80601f016020809104026020016040519081016040528092919081815260200182805461102f9061484b565b801561107c5780601f106110515761010080835404028352916020019161107c565b820191906000526020600020905b81548152906001019060200180831161105f57829003601f168201915b505050505081526020016005820180546110959061484b565b80601f01602080910402602001604051908101604052809291908181526020018280546110c19061484b565b801561110e5780601f106110e35761010080835404028352916020019161110e565b820191906000526020600020905b8154815290600101906020018083116110f157829003601f168201915b505050505081526020016006820154815250509050919050565b6060600080600080600090505b6014805490508110156111db573373ffffffffffffffffffffffffffffffffffffffff16600d600060018461116a9190614c7b565b815260200190815260200160002060010160009054906101000a900473ffffffffffffffffffffffffffffffffffffffff1673ffffffffffffffffffffffffffffffffffffffff1614156111c8576001846111c59190614c7b565b93505b80806111d390614cd1565b915050611135565b5060008367ffffffffffffffff8111156111f8576111f7614426565b5b60405190808252806020026020018201604052801561123157816020015b61121e613d05565b8152602001906001900390816112165790505b50905060005b601480549050811015611558573373ffffffffffffffffffffffffffffffffffffffff16600d600060018461126c9190614c7b565b815260200190815260200160002060010160009054906101000a900473ffffffffffffffffffffffffffffffffffffffff1673ffffffffffffffffffffffffffffffffffffffff161415611545576001816112c79190614c7b565b92506000600d60008581526020019081526020016000209050806040518060e0016040529081600082015481526020016001820160009054906101000a900473ffffffffffffffffffffffffffffffffffffffff1673ffffffffffffffffffffffffffffffffffffffff1673ffffffffffffffffffffffffffffffffffffffff168152602001600282015481526020016003820180546113669061484b565b80601f01602080910402602001604051908101604052809291908181526020018280546113929061484b565b80156113df5780601f106113b4576101008083540402835291602001916113df565b820191906000526020600020905b8154815290600101906020018083116113c257829003601f168201915b505050505081526020016004820180546113f89061484b565b80601f01602080910402602001604051908101604052809291908181526020018280546114249061484b565b80156114715780601f1061144657610100808354040283529160200191611471565b820191906000526020600020905b81548152906001019060200180831161145457829003601f168201915b5050505050815260200160058201805461148a9061484b565b80601f01602080910402602001604051908101604052809291908181526020018280546114b69061484b565b80156115035780601f106114d857610100808354040283529160200191611503565b820191906000526020600020905b8154815290600101906020018083116114e657829003601f168201915b5050505050815260200160068201548152505083868151811061152957611528614be9565b5b60200260200101819052506001856115419190614c7b565b9450505b808061155090614cd1565b915050611237565b508094505050505090565b6000806002600084815260200190815260200160002060009054906101000a900473ffffffffffffffffffffffffffffffffffffffff169050600073ffffffffffffffffffffffffffffffffffffffff168173ffffffffffffffffffffffffffffffffffffffff16141561160c576040517f08c379a000000000000000000000000000000000000000000000000000000000815260040161160390614d8c565b60405180910390fd5b80915050919050565b60008073ffffffffffffffffffffffffffffffffffffffff168273ffffffffffffffffffffffffffffffffffffffff161415611686576040517f08c379a000000000000000000000000000000000000000000000000000000000815260040161167d90614e1e565b60405180910390fd5b600360008373ffffffffffffffffffffffffffffffffffffffff1673ffffffffffffffffffffffffffffffffffffffff168152602001908152602001600020549050919050565b6116d5612ec0565b6116df6000612f3e565b565b60115481565b60125434101561172c576040517f08c379a000000000000000000000000000000000000000000000000000000000815260040161172390614e8a565b60405180910390fd5b6000600b8360405161173e9190614ee6565b908152602001604051809103902060009054906101000a900460ff1660ff161461179d576040517f08c379a000000000000000000000000000000000000000000000000000000000815260040161179490614f49565b60405180910390fd5b6117a5611bd9565b73ffffffffffffffffffffffffffffffffffffffff163373ffffffffffffffffffffffffffffffffffffffff161415611813576040517f08c379a000000000000000000000000000000000000000000000000000000000815260040161180a90614fb5565b60405180910390fd5b60006064600f54346118259190614fd5565b61182f919061505e565b905061185d600e60009054906101000a900473ffffffffffffffffffffffffffffffffffffffff1682613004565b611879611868611bd9565b82346118749190614c47565b613004565b6010600081548092919061188c90614cd1565b919050555060146040518060e0016040528060105481526020013373ffffffffffffffffffffffffffffffffffffffff1681526020018481526020018781526020018681526020018581526020014281525090806001815401808255809150506001900390600052602060002090600702016000909190919091506000820151816000015560208201518160010160006101000a81548173ffffffffffffffffffffffffffffffffffffffff021916908373ffffffffffffffffffffffffffffffffffffffff16021790555060408201518160020155606082015181600301908051906020019061197e929190613d58565b50608082015181600401908051906020019061199b929190613d58565b5060a08201518160050190805190602001906119b8929190613d58565b5060c0820151816006015550506040518060e0016040528060105481526020013373ffffffffffffffffffffffffffffffffffffffff16815260200183815260200186815260200185815260200184815260200142815250600d600060105481526020019081526020016000206000820151816000015560208201518160010160006101000a81548173ffffffffffffffffffffffffffffffffffffffff021916908373ffffffffffffffffffffffffffffffffffffffff160217905550604082015181600201556060820151816003019080519060200190611a9c929190613d58565b506080820151816004019080519060200190611ab9929190613d58565b5060a0820151816005019080519060200190611ad6929190613d58565b5060c082015181600601559050503373ffffffffffffffffffffffffffffffffffffffff167fb9508407a6eccb191d8da3286f4173697cf95604e9ea192fe5ab7c862b5221f6601054348642604051611b32949392919061508f565b60405180910390a2611b463360105461307f565b6001600b84604051611b589190614ee6565b908152602001604051809103902060006101000a81548160ff021916908360ff16021790555033600c6000601054815260200190815260200160002060006101000a81548173ffffffffffffffffffffffffffffffffffffffff021916908373ffffffffffffffffffffffffffffffffffffffff1602179055505050505050565b6000600a60009054906101000a900473ffffffffffffffffffffffffffffffffffffffff16905090565b606060018054611c129061484b565b80601f0160208091040260200160405190810160405280929190818152602001828054611c3e9061484b565b8015611c8b5780601f10611c6057610100808354040283529160200191611c8b565b820191906000526020600020905b815481529060010190602001808311611c6e57829003601f168201915b5050505050905090565b6014600182611ca49190614c47565b81548110611cb557611cb4614be9565b5b906000526020600020906007020160020154341015611d09576040517f08c379a0000000000000000000000000000000000000000000000000000000008152600401611d0090615127565b60405180910390fd5b6014600182611d189190614c47565b81548110611d2957611d28614be9565b5b906000526020600020906007020160010160009054906101000a900473ffffffffffffffffffffffffffffffffffffffff1673ffffffffffffffffffffffffffffffffffffffff163373ffffffffffffffffffffffffffffffffffffffff161415611dc9576040517f08c379a0000000000000000000000000000000000000000000000000000000008152600401611dc090615193565b60405180910390fd5b60006064600f5434611ddb9190614fd5565b611de5919061505e565b9050611e13600e60009054906101000a900473ffffffffffffffffffffffffffffffffffffffff1682613004565b611e796014600184611e259190614c47565b81548110611e3657611e35614be9565b5b906000526020600020906007020160010160009054906101000a900473ffffffffffffffffffffffffffffffffffffffff168234611e749190614c47565b613004565b60116000815480929190611e8c90614cd1565b919050555060136040518060e0016040528060115481526020013373ffffffffffffffffffffffffffffffffffffffff1681526020013481526020016014600186611ed79190614c47565b81548110611ee857611ee7614be9565b5b90600052602060002090600702016003018054611f049061484b565b80601f0160208091040260200160405190810160405280929190818152602001828054611f309061484b565b8015611f7d5780601f10611f5257610100808354040283529160200191611f7d565b820191906000526020600020905b815481529060010190602001808311611f6057829003601f168201915b505050505081526020016014600186611f969190614c47565b81548110611fa757611fa6614be9565b5b90600052602060002090600702016004018054611fc39061484b565b80601f0160208091040260200160405190810160405280929190818152602001828054611fef9061484b565b801561203c5780601f106120115761010080835404028352916020019161203c565b820191906000526020600020905b81548152906001019060200180831161201f57829003601f168201915b5050505050815260200160146001866120559190614c47565b8154811061206657612065614be9565b5b906000526020600020906007020160050180546120829061484b565b80601f01602080910402602001604051908101604052809291908181526020018280546120ae9061484b565b80156120fb5780601f106120d0576101008083540402835291602001916120fb565b820191906000526020600020905b8154815290600101906020018083116120de57829003601f168201915b505050505081526020014281525090806001815401808255809150506001900390600052602060002090600702016000909190919091506000820151816000015560208201518160010160006101000a81548173ffffffffffffffffffffffffffffffffffffffff021916908373ffffffffffffffffffffffffffffffffffffffff1602179055506040820151816002015560608201518160030190805190602001906121a9929190613d58565b5060808201518160040190805190602001906121c6929190613d58565b5060a08201518160050190805190602001906121e3929190613d58565b5060c0820151816006015550503373ffffffffffffffffffffffffffffffffffffffff167fb9508407a6eccb191d8da3286f4173697cf95604e9ea192fe5ab7c862b5221f660115434601460018761223b9190614c47565b8154811061224c5761224b614be9565b5b90600052602060002090600702016005014260405161226e9493929190615248565b60405180910390a23360146001846122869190614c47565b8154811061229757612296614be9565b5b906000526020600020906007020160010160006101000a81548173ffffffffffffffffffffffffffffffffffffffff021916908373ffffffffffffffffffffffffffffffffffffffff16021790555033600d6000601054815260200190815260200160002060010160006101000a81548173ffffffffffffffffffffffffffffffffffffffff021916908373ffffffffffffffffffffffffffffffffffffffff1602179055505050565b61235361234c612ac5565b838361309d565b5050565b600080821161239b576040517f08c379a0000000000000000000000000000000000000000000000000000000008152600401612392906152e0565b60405180910390fd5b60146001846123aa9190614c47565b815481106123bb576123ba614be9565b5b906000526020600020906007020160010160009054906101000a900473ffffffffffffffffffffffffffffffffffffffff1673ffffffffffffffffffffffffffffffffffffffff163373ffffffffffffffffffffffffffffffffffffffff161461245a576040517f08c379a000000000000000000000000000000000000000000000000000000000815260040161245190615193565b60405180910390fd5b81601460018561246a9190614c47565b8154811061247b5761247a614be9565b5b9060005260206000209060070201600201819055506001905092915050565b6124ab6124a5612ac5565b83612b86565b6124ea576040517f08c379a00000000000000000000000000000000000000000000000000000000081526004016124e190614aa5565b60405180910390fd5b6124f68484848461320a565b50505050565b606061250782612a59565b612546576040517f08c379a000000000000000000000000000000000000000000000000000000000815260040161253d90615372565b60405180910390fd5b6000612550613266565b90506000815111612570576040518060200160405280600081525061259b565b8061257a8461327d565b60405160200161258b929190615392565b6040516020818303038152906040525b915050919050565b600c6020528060005260406000206000915054906101000a900473ffffffffffffffffffffffffffffffffffffffff1681565b60606014805480602002602001604051908101604052809291908181526020016000905b8282101561285657838290600052602060002090600702016040518060e0016040529081600082015481526020016001820160009054906101000a900473ffffffffffffffffffffffffffffffffffffffff1673ffffffffffffffffffffffffffffffffffffffff1673ffffffffffffffffffffffffffffffffffffffff168152602001600282015481526020016003820180546126979061484b565b80601f01602080910402602001604051908101604052809291908181526020018280546126c39061484b565b80156127105780601f106126e557610100808354040283529160200191612710565b820191906000526020600020905b8154815290600101906020018083116126f357829003601f168201915b505050505081526020016004820180546127299061484b565b80601f01602080910402602001604051908101604052809291908181526020018280546127559061484b565b80156127a25780601f10612777576101008083540402835291602001916127a2565b820191906000526020600020905b81548152906001019060200180831161278557829003601f168201915b505050505081526020016005820180546127bb9061484b565b80601f01602080910402602001604051908101604052809291908181526020018280546127e79061484b565b80156128345780601f1061280957610100808354040283529160200191612834565b820191906000526020600020905b81548152906001019060200180831161281757829003601f168201915b50505050508152602001600682015481525050815260200190600101906125fa565b50505050905090565b6000600560008473ffffffffffffffffffffffffffffffffffffffff1673ffffffffffffffffffffffffffffffffffffffff16815260200190815260200160002060008373ffffffffffffffffffffffffffffffffffffffff1673ffffffffffffffffffffffffffffffffffffffff16815260200190815260200160002060009054906101000a900460ff16905092915050565b6128fb612ec0565b600073ffffffffffffffffffffffffffffffffffffffff168173ffffffffffffffffffffffffffffffffffffffff16141561296b576040517f08c379a000000000000000000000000000000000000000000000000000000000815260040161296290615428565b60405180910390fd5b61297481612f3e565b50565b60007f80ac58cd000000000000000000000000000000000000000000000000000000007bffffffffffffffffffffffffffffffffffffffffffffffffffffffff1916827bffffffffffffffffffffffffffffffffffffffffffffffffffffffff19161480612a4257507f5b5e139f000000000000000000000000000000000000000000000000000000007bffffffffffffffffffffffffffffffffffffffffffffffffffffffff1916827bffffffffffffffffffffffffffffffffffffffffffffffffffffffff1916145b80612a525750612a5182613355565b5b9050919050565b60008073ffffffffffffffffffffffffffffffffffffffff166002600084815260200190815260200160002060009054906101000a900473ffffffffffffffffffffffffffffffffffffffff1673ffffffffffffffffffffffffffffffffffffffff1614159050919050565b600033905090565b816004600083815260200190815260200160002060006101000a81548173ffffffffffffffffffffffffffffffffffffffff021916908373ffffffffffffffffffffffffffffffffffffffff160217905550808273ffffffffffffffffffffffffffffffffffffffff16612b4083611563565b73ffffffffffffffffffffffffffffffffffffffff167f8c5be1e5ebec7d5bd14f71427d1e84f3dd0314c0f7b2291e5b200ac8c7c3b92560405160405180910390a45050565b6000612b9182612a59565b612bd0576040517f08c379a0000000000000000000000000000000000000000000000000000000008152600401612bc7906154ba565b60405180910390fd5b6000612bdb83611563565b90508073ffffffffffffffffffffffffffffffffffffffff168473ffffffffffffffffffffffffffffffffffffffff161480612c4a57508373ffffffffffffffffffffffffffffffffffffffff16612c32846108bb565b73ffffffffffffffffffffffffffffffffffffffff16145b80612c5b5750612c5a818561285f565b5b91505092915050565b8273ffffffffffffffffffffffffffffffffffffffff16612c8482611563565b73ffffffffffffffffffffffffffffffffffffffff1614612cda576040517f08c379a0000000000000000000000000000000000000000000000000000000008152600401612cd19061554c565b60405180910390fd5b600073ffffffffffffffffffffffffffffffffffffffff168273ffffffffffffffffffffffffffffffffffffffff161415612d4a576040517f08c379a0000000000000000000000000000000000000000000000000000000008152600401612d41906155de565b60405180910390fd5b612d558383836133bf565b612d60600082612acd565b6001600360008573ffffffffffffffffffffffffffffffffffffffff1673ffffffffffffffffffffffffffffffffffffffff1681526020019081526020016000206000828254612db09190614c47565b925050819055506001600360008473ffffffffffffffffffffffffffffffffffffffff1673ffffffffffffffffffffffffffffffffffffffff1681526020019081526020016000206000828254612e079190614c7b565b92505081905550816002600083815260200190815260200160002060006101000a81548173ffffffffffffffffffffffffffffffffffffffff021916908373ffffffffffffffffffffffffffffffffffffffff160217905550808273ffffffffffffffffffffffffffffffffffffffff168473ffffffffffffffffffffffffffffffffffffffff167fddf252ad1be2c89b69c2b068fc378daa952ba7f163c4a11628f55a4df523b3ef60405160405180910390a4505050565b612ec8612ac5565b73ffffffffffffffffffffffffffffffffffffffff16612ee6611bd9565b73ffffffffffffffffffffffffffffffffffffffff1614612f3c576040517f08c379a0000000000000000000000000000000000000000000000000000000008152600401612f339061564a565b60405180910390fd5b565b6000600a60009054906101000a900473ffffffffffffffffffffffffffffffffffffffff16905081600a60006101000a81548173ffffffffffffffffffffffffffffffffffffffff021916908373ffffffffffffffffffffffffffffffffffffffff1602179055508173ffffffffffffffffffffffffffffffffffffffff168173ffffffffffffffffffffffffffffffffffffffff167f8be0079c531659141344cd1fd0a4f28419497f9722a3daafe3b4186f6b6457e060405160405180910390a35050565b60008273ffffffffffffffffffffffffffffffffffffffff168260405161302a9061569b565b60006040518083038185875af1925050503d8060008114613067576040519150601f19603f3d011682016040523d82523d6000602084013e61306c565b606091505b505090508061307a57600080fd5b505050565b6130998282604051806020016040528060008152506134d3565b5050565b8173ffffffffffffffffffffffffffffffffffffffff168373ffffffffffffffffffffffffffffffffffffffff16141561310c576040517f08c379a0000000000000000000000000000000000000000000000000000000008152600401613103906156fc565b60405180910390fd5b80600560008573ffffffffffffffffffffffffffffffffffffffff1673ffffffffffffffffffffffffffffffffffffffff16815260200190815260200160002060008473ffffffffffffffffffffffffffffffffffffffff1673ffffffffffffffffffffffffffffffffffffffff16815260200190815260200160002060006101000a81548160ff0219169083151502179055508173ffffffffffffffffffffffffffffffffffffffff168373ffffffffffffffffffffffffffffffffffffffff167f17307eab39ab6107e8899845ad3d59bd9653f200f220920489ca2b5937696c31836040516131fd9190613eaf565b60405180910390a3505050565b613215848484612c64565b6132218484848461352e565b613260576040517f08c379a00000000000000000000000000000000000000000000000000000000081526004016132579061578e565b60405180910390fd5b50505050565b606060405180602001604052806000815250905090565b60606000600161328c846136b6565b01905060008167ffffffffffffffff8111156132ab576132aa614426565b5b6040519080825280601f01601f1916602001820160405280156132dd5781602001600182028036833780820191505090505b509050600082602001820190505b60011561334a578080600190039150507f3031323334353637383961626364656600000000000000000000000000000000600a86061a8153600a85816133345761333361502f565b5b04945060008514156133455761334a565b6132eb565b819350505050919050565b60007f01ffc9a7000000000000000000000000000000000000000000000000000000007bffffffffffffffffffffffffffffffffffffffffffffffffffffffff1916827bffffffffffffffffffffffffffffffffffffffffffffffffffffffff1916149050919050565b6133ca838383613809565b600073ffffffffffffffffffffffffffffffffffffffff168373ffffffffffffffffffffffffffffffffffffffff16141561340d576134088161380e565b61344c565b8173ffffffffffffffffffffffffffffffffffffffff168373ffffffffffffffffffffffffffffffffffffffff161461344b5761344a8382613857565b5b5b600073ffffffffffffffffffffffffffffffffffffffff168273ffffffffffffffffffffffffffffffffffffffff16141561348f5761348a816139c4565b6134ce565b8273ffffffffffffffffffffffffffffffffffffffff168273ffffffffffffffffffffffffffffffffffffffff16146134cd576134cc8282613a95565b5b5b505050565b6134dd8383613b14565b6134ea600084848461352e565b613529576040517f08c379a00000000000000000000000000000000000000000000000000000000081526004016135209061578e565b60405180910390fd5b505050565b600061354f8473ffffffffffffffffffffffffffffffffffffffff16613ce2565b156136a9578373ffffffffffffffffffffffffffffffffffffffff1663150b7a02613578612ac5565b8786866040518563ffffffff1660e01b815260040161359a9493929190615803565b6020604051808303816000875af19250505080156135d657506040513d601f19601f820116820180604052508101906135d39190615864565b60015b613659573d8060008114613606576040519150601f19603f3d011682016040523d82523d6000602084013e61360b565b606091505b50600081511415613651576040517f08c379a00000000000000000000000000000000000000000000000000000000081526004016136489061578e565b60405180910390fd5b805181602001fd5b63150b7a0260e01b7bffffffffffffffffffffffffffffffffffffffffffffffffffffffff1916817bffffffffffffffffffffffffffffffffffffffffffffffffffffffff1916149150506136ae565b600190505b949350505050565b600080600090507a184f03e93ff9f4daa797ed6e38ed64bf6a1f0100000000000000008310613714577a184f03e93ff9f4daa797ed6e38ed64bf6a1f010000000000000000838161370a5761370961502f565b5b0492506040810190505b6d04ee2d6d415b85acef81000000008310613751576d04ee2d6d415b85acef810000000083816137475761374661502f565b5b0492506020810190505b662386f26fc10000831061378057662386f26fc1000083816137765761377561502f565b5b0492506010810190505b6305f5e10083106137a9576305f5e100838161379f5761379e61502f565b5b0492506008810190505b61271083106137ce5761271083816137c4576137c361502f565b5b0492506004810190505b606483106137f157606483816137e7576137e661502f565b5b0492506002810190505b600a8310613800576001810190505b80915050919050565b505050565b6008805490506009600083815260200190815260200160002081905550600881908060018154018082558091505060019003906000526020600020016000909190919091505550565b6000600161386484611615565b61386e9190614c47565b9050600060076000848152602001908152602001600020549050818114613953576000600660008673ffffffffffffffffffffffffffffffffffffffff1673ffffffffffffffffffffffffffffffffffffffff168152602001908152602001600020600084815260200190815260200160002054905080600660008773ffffffffffffffffffffffffffffffffffffffff1673ffffffffffffffffffffffffffffffffffffffff168152602001908152602001600020600084815260200190815260200160002081905550816007600083815260200190815260200160002081905550505b6007600084815260200190815260200160002060009055600660008573ffffffffffffffffffffffffffffffffffffffff1673ffffffffffffffffffffffffffffffffffffffff16815260200190815260200160002060008381526020019081526020016000206000905550505050565b600060016008805490506139d89190614c47565b9050600060096000848152602001908152602001600020549050600060088381548110613a0857613a07614be9565b5b906000526020600020015490508060088381548110613a2a57613a29614be9565b5b906000526020600020018190555081600960008381526020019081526020016000208190555060096000858152602001908152602001600020600090556008805480613a7957613a78615891565b5b6001900381819060005260206000200160009055905550505050565b6000613aa083611615565b905081600660008573ffffffffffffffffffffffffffffffffffffffff1673ffffffffffffffffffffffffffffffffffffffff168152602001908152602001600020600083815260200190815260200160002081905550806007600084815260200190815260200160002081905550505050565b600073ffffffffffffffffffffffffffffffffffffffff168273ffffffffffffffffffffffffffffffffffffffff161415613b84576040517f08c379a0000000000000000000000000000000000000000000000000000000008152600401613b7b9061590c565b60405180910390fd5b613b8d81612a59565b15613bcd576040517f08c379a0000000000000000000000000000000000000000000000000000000008152600401613bc490615978565b60405180910390fd5b613bd9600083836133bf565b6001600360008473ffffffffffffffffffffffffffffffffffffffff1673ffffffffffffffffffffffffffffffffffffffff1681526020019081526020016000206000828254613c299190614c7b565b92505081905550816002600083815260200190815260200160002060006101000a81548173ffffffffffffffffffffffffffffffffffffffff021916908373ffffffffffffffffffffffffffffffffffffffff160217905550808273ffffffffffffffffffffffffffffffffffffffff16600073ffffffffffffffffffffffffffffffffffffffff167fddf252ad1be2c89b69c2b068fc378daa952ba7f163c4a11628f55a4df523b3ef60405160405180910390a45050565b6000808273ffffffffffffffffffffffffffffffffffffffff163b119050919050565b6040518060e0016040528060008152602001600073ffffffffffffffffffffffffffffffffffffffff16815260200160008152602001606081526020016060815260200160608152602001600081525090565b828054613d649061484b565b90600052602060002090601f016020900481019282613d865760008555613dcd565b82601f10613d9f57805160ff1916838001178555613dcd565b82800160010185558215613dcd579182015b82811115613dcc578251825591602001919060010190613db1565b5b509050613dda9190613dde565b5090565b5b80821115613df7576000816000905550600101613ddf565b5090565b6000604051905090565b600080fd5b600080fd5b60007fffffffff0000000000000000000000000000000000000000000000000000000082169050919050565b613e4481613e0f565b8114613e4f57600080fd5b50565b600081359050613e6181613e3b565b92915050565b600060208284031215613e7d57613e7c613e05565b5b6000613e8b84828501613e52565b91505092915050565b60008115159050919050565b613ea981613e94565b82525050565b6000602082019050613ec46000830184613ea0565b92915050565b6000819050919050565b613edd81613eca565b82525050565b6000602082019050613ef86000830184613ed4565b92915050565b600081519050919050565b600082825260208201905092915050565b60005b83811015613f38578082015181840152602081019050613f1d565b83811115613f47576000848401525b50505050565b6000601f19601f8301169050919050565b6000613f6982613efe565b613f738185613f09565b9350613f83818560208601613f1a565b613f8c81613f4d565b840191505092915050565b60006020820190508181036000830152613fb18184613f5e565b905092915050565b613fc281613eca565b8114613fcd57600080fd5b50565b600081359050613fdf81613fb9565b92915050565b600060208284031215613ffb57613ffa613e05565b5b600061400984828501613fd0565b91505092915050565b600073ffffffffffffffffffffffffffffffffffffffff82169050919050565b600061403d82614012565b9050919050565b61404d81614032565b82525050565b60006020820190506140686000830184614044565b92915050565b61407781614032565b811461408257600080fd5b50565b6000813590506140948161406e565b92915050565b600080604083850312156140b1576140b0613e05565b5b60006140bf85828601614085565b92505060206140d085828601613fd0565b9150509250929050565b6000806000606084860312156140f3576140f2613e05565b5b600061410186828701614085565b935050602061411286828701614085565b925050604061412386828701613fd0565b9150509250925092565b600081519050919050565b600082825260208201905092915050565b6000819050602082019050919050565b61416281613eca565b82525050565b61417181614032565b82525050565b600082825260208201905092915050565b600061419382613efe565b61419d8185614177565b93506141ad818560208601613f1a565b6141b681613f4d565b840191505092915050565b600060e0830160008301516141d96000860182614159565b5060208301516141ec6020860182614168565b5060408301516141ff6040860182614159565b50606083015184820360608601526142178282614188565b915050608083015184820360808601526142318282614188565b91505060a083015184820360a086015261424b8282614188565b91505060c083015161426060c0860182614159565b508091505092915050565b600061427783836141c1565b905092915050565b6000602082019050919050565b60006142978261412d565b6142a18185614138565b9350836020820285016142b385614149565b8060005b858110156142ef57848403895281516142d0858261426b565b94506142db8361427f565b925060208a019950506001810190506142b7565b50829750879550505050505092915050565b6000602082019050818103600083015261431b818461428c565b905092915050565b600060e08301600083015161433b6000860182614159565b50602083015161434e6020860182614168565b5060408301516143616040860182614159565b50606083015184820360608601526143798282614188565b915050608083015184820360808601526143938282614188565b91505060a083015184820360a08601526143ad8282614188565b91505060c08301516143c260c0860182614159565b508091505092915050565b600060208201905081810360008301526143e78184614323565b905092915050565b60006020828403121561440557614404613e05565b5b600061441384828501614085565b91505092915050565b600080fd5b600080fd5b7f4e487b7100000000000000000000000000000000000000000000000000000000600052604160045260246000fd5b61445e82613f4d565b810181811067ffffffffffffffff8211171561447d5761447c614426565b5b80604052505050565b6000614490613dfb565b905061449c8282614455565b919050565b600067ffffffffffffffff8211156144bc576144bb614426565b5b6144c582613f4d565b9050602081019050919050565b82818337600083830152505050565b60006144f46144ef846144a1565b614486565b9050828152602081018484840111156145105761450f614421565b5b61451b8482856144d2565b509392505050565b600082601f8301126145385761453761441c565b5b81356145488482602086016144e1565b91505092915050565b6000806000806080858703121561456b5761456a613e05565b5b600085013567ffffffffffffffff81111561458957614588613e0a565b5b61459587828801614523565b945050602085013567ffffffffffffffff8111156145b6576145b5613e0a565b5b6145c287828801614523565b935050604085013567ffffffffffffffff8111156145e3576145e2613e0a565b5b6145ef87828801614523565b925050606061460087828801613fd0565b91505092959194509250565b61461581613e94565b811461462057600080fd5b50565b6000813590506146328161460c565b92915050565b6000806040838503121561464f5761464e613e05565b5b600061465d85828601614085565b925050602061466e85828601614623565b9150509250929050565b6000806040838503121561468f5761468e613e05565b5b600061469d85828601613fd0565b92505060206146ae85828601613fd0565b9150509250929050565b600067ffffffffffffffff8211156146d3576146d2614426565b5b6146dc82613f4d565b9050602081019050919050565b60006146fc6146f7846146b8565b614486565b90508281526020810184848401111561471857614717614421565b5b6147238482856144d2565b509392505050565b600082601f8301126147405761473f61441c565b5b81356147508482602086016146e9565b91505092915050565b6000806000806080858703121561477357614772613e05565b5b600061478187828801614085565b945050602061479287828801614085565b93505060406147a387828801613fd0565b925050606085013567ffffffffffffffff8111156147c4576147c3613e0a565b5b6147d08782880161472b565b91505092959194509250565b600080604083850312156147f3576147f2613e05565b5b600061480185828601614085565b925050602061481285828601614085565b9150509250929050565b7f4e487b7100000000000000000000000000000000000000000000000000000000600052602260045260246000fd5b6000600282049050600182168061486357607f821691505b602082108114156148775761487661481c565b5b50919050565b7f4552433732313a20617070726f76656420717565727920666f72206e6f6e657860008201527f697374656e7420746f6b656e0000000000000000000000000000000000000000602082015250565b60006148d9602c83613f09565b91506148e48261487d565b604082019050919050565b60006020820190508181036000830152614908816148cc565b9050919050565b7f4552433732313a20617070726f76616c20746f2063757272656e74206f776e6560008201527f7200000000000000000000000000000000000000000000000000000000000000602082015250565b600061496b602183613f09565b91506149768261490f565b604082019050919050565b6000602082019050818103600083015261499a8161495e565b9050919050565b7f4552433732313a20617070726f76652063616c6c6572206973206e6f74206f7760008201527f6e6572206e6f7220617070726f76656420666f7220616c6c0000000000000000602082015250565b60006149fd603883613f09565b9150614a08826149a1565b604082019050919050565b60006020820190508181036000830152614a2c816149f0565b9050919050565b7f4552433732313a207472616e736665722063616c6c6572206973206e6f74206f60008201527f776e6572206e6f7220617070726f766564000000000000000000000000000000602082015250565b6000614a8f603183613f09565b9150614a9a82614a33565b604082019050919050565b60006020820190508181036000830152614abe81614a82565b9050919050565b7f455243373231456e756d657261626c653a206f776e657220696e646578206f7560008201527f74206f6620626f756e6473000000000000000000000000000000000000000000602082015250565b6000614b21602b83613f09565b9150614b2c82614ac5565b604082019050919050565b60006020820190508181036000830152614b5081614b14565b9050919050565b7f455243373231456e756d657261626c653a20676c6f62616c20696e646578206f60008201527f7574206f6620626f756e64730000000000000000000000000000000000000000602082015250565b6000614bb3602c83613f09565b9150614bbe82614b57565b604082019050919050565b60006020820190508181036000830152614be281614ba6565b9050919050565b7f4e487b7100000000000000000000000000000000000000000000000000000000600052603260045260246000fd5b7f4e487b7100000000000000000000000000000000000000000000000000000000600052601160045260246000fd5b6000614c5282613eca565b9150614c5d83613eca565b925082821015614c7057614c6f614c18565b5b828203905092915050565b6000614c8682613eca565b9150614c9183613eca565b9250827fffffffffffffffffffffffffffffffffffffffffffffffffffffffffffffffff03821115614cc657614cc5614c18565b5b828201905092915050565b6000614cdc82613eca565b91507fffffffffffffffffffffffffffffffffffffffffffffffffffffffffffffffff821415614d0f57614d0e614c18565b5b600182019050919050565b7f4552433732313a206f776e657220717565727920666f72206e6f6e657869737460008201527f656e7420746f6b656e0000000000000000000000000000000000000000000000602082015250565b6000614d76602983613f09565b9150614d8182614d1a565b604082019050919050565b60006020820190508181036000830152614da581614d69565b9050919050565b7f4552433732313a2062616c616e636520717565727920666f7220746865207a6560008201527f726f206164647265737300000000000000000000000000000000000000000000602082015250565b6000614e08602a83613f09565b9150614e1382614dac565b604082019050919050565b60006020820190508181036000830152614e3781614dfb565b9050919050565b7f457468657220746f6f206c6f7720666f72206d696e74696e6721000000000000600082015250565b6000614e74601a83613f09565b9150614e7f82614e3e565b602082019050919050565b60006020820190508181036000830152614ea381614e67565b9050919050565b600081905092915050565b6000614ec082613efe565b614eca8185614eaa565b9350614eda818560208601613f1a565b80840191505092915050565b6000614ef28284614eb5565b915081905092915050565b7f54686973204e465420697320616c7265616479206d696e746564210000000000600082015250565b6000614f33601b83613f09565b9150614f3e82614efd565b602082019050919050565b60006020820190508181036000830152614f6281614f26565b9050919050565b7f53616c6573206e6f7420616c6c6f776564210000000000000000000000000000600082015250565b6000614f9f601283613f09565b9150614faa82614f69565b602082019050919050565b60006020820190508181036000830152614fce81614f92565b9050919050565b6000614fe082613eca565b9150614feb83613eca565b9250817fffffffffffffffffffffffffffffffffffffffffffffffffffffffffffffffff048311821515161561502457615023614c18565b5b828202905092915050565b7f4e487b7100000000000000000000000000000000000000000000000000000000600052601260045260246000fd5b600061506982613eca565b915061507483613eca565b9250826150845761508361502f565b5b828204905092915050565b60006080820190506150a46000830187613ed4565b6150b16020830186613ed4565b81810360408301526150c38185613f5e565b90506150d26060830184613ed4565b95945050505050565b7f457468657220746f6f206c6f7720666f72207075726368617365210000000000600082015250565b6000615111601b83613f09565b915061511c826150db565b602082019050919050565b6000602082019050818103600083015261514081615104565b9050919050565b7f4f7065726174696f6e204e6f7420416c6c6f7765642100000000000000000000600082015250565b600061517d601683613f09565b915061518882615147565b602082019050919050565b600060208201905081810360008301526151ac81615170565b9050919050565b60008190508160005260206000209050919050565b600081546151d58161484b565b6151df8186613f09565b945060018216600081146151fa576001811461520c5761523f565b60ff198316865260208601935061523f565b615215856151b3565b60005b8381101561523757815481890152600182019150602081019050615218565b808801955050505b50505092915050565b600060808201905061525d6000830187613ed4565b61526a6020830186613ed4565b818103604083015261527c81856151c8565b905061528b6060830184613ed4565b95945050505050565b7f457468657220746f6f206c6f7721000000000000000000000000000000000000600082015250565b60006152ca600e83613f09565b91506152d582615294565b602082019050919050565b600060208201905081810360008301526152f9816152bd565b9050919050565b7f4552433732314d657461646174613a2055524920717565727920666f72206e6f60008201527f6e6578697374656e7420746f6b656e0000000000000000000000000000000000602082015250565b600061535c602f83613f09565b915061536782615300565b604082019050919050565b6000602082019050818103600083015261538b8161534f565b9050919050565b600061539e8285614eb5565b91506153aa8284614eb5565b91508190509392505050565b7f4f776e61626c653a206e6577206f776e657220697320746865207a65726f206160008201527f6464726573730000000000000000000000000000000000000000000000000000602082015250565b6000615412602683613f09565b915061541d826153b6565b604082019050919050565b6000602082019050818103600083015261544181615405565b9050919050565b7f4552433732313a206f70657261746f7220717565727920666f72206e6f6e657860008201527f697374656e7420746f6b656e0000000000000000000000000000000000000000602082015250565b60006154a4602c83613f09565b91506154af82615448565b604082019050919050565b600060208201905081810360008301526154d381615497565b9050919050565b7f4552433732313a207472616e73666572206f6620746f6b656e2074686174206960008201527f73206e6f74206f776e0000000000000000000000000000000000000000000000602082015250565b6000615536602983613f09565b9150615541826154da565b604082019050919050565b6000602082019050818103600083015261556581615529565b9050919050565b7f4552433732313a207472616e7366657220746f20746865207a65726f2061646460008201527f7265737300000000000000000000000000000000000000000000000000000000602082015250565b60006155c8602483613f09565b91506155d38261556c565b604082019050919050565b600060208201905081810360008301526155f7816155bb565b9050919050565b7f4f776e61626c653a2063616c6c6572206973206e6f7420746865206f776e6572600082015250565b6000615634602083613f09565b915061563f826155fe565b602082019050919050565b6000602082019050818103600083015261566381615627565b9050919050565b600081905092915050565b50565b600061568560008361566a565b915061569082615675565b600082019050919050565b60006156a682615678565b9150819050919050565b7f4552433732313a20617070726f766520746f2063616c6c657200000000000000600082015250565b60006156e6601983613f09565b91506156f1826156b0565b602082019050919050565b60006020820190508181036000830152615715816156d9565b9050919050565b7f4552433732313a207472616e7366657220746f206e6f6e20455243373231526560008201527f63656976657220696d706c656d656e7465720000000000000000000000000000602082015250565b6000615778603283613f09565b91506157838261571c565b604082019050919050565b600060208201905081810360008301526157a78161576b565b9050919050565b600081519050919050565b600082825260208201905092915050565b60006157d5826157ae565b6157df81856157b9565b93506157ef818560208601613f1a565b6157f881613f4d565b840191505092915050565b60006080820190506158186000830187614044565b6158256020830186614044565b6158326040830185613ed4565b818103606083015261584481846157ca565b905095945050505050565b60008151905061585e81613e3b565b92915050565b60006020828403121561587a57615879613e05565b5b60006158888482850161584f565b91505092915050565b7f4e487b7100000000000000000000000000000000000000000000000000000000600052603160045260246000fd5b7f4552433732313a206d696e7420746f20746865207a65726f2061646472657373600082015250565b60006158f6602083613f09565b9150615901826158c0565b602082019050919050565b60006020820190508181036000830152615925816158e9565b9050919050565b7f4552433732313a20746f6b656e20616c7265616479206d696e74656400000000600082015250565b6000615962601c83613f09565b915061596d8261592c565b602082019050919050565b6000602082019050818103600083015261599181615955565b905091905056fea264697066735822122091799b48049d920564f932002b11550490a276ceea45af16a65c6c6d2291642464736f6c634300080b0033",
  "immutableReferences": {},
  "source": "// SPDX-License-Identifier: MIT\npragma solidity >=0.7.0 <0.9.0;\n\nimport \"./ERC721.sol\";\nimport \"./ERC721Enumerable.sol\";\nimport \"@openzeppelin/contracts/access/Ownable.sol\";\n\ncontract MarcadoNFT is ERC721Enumerable, Ownable {\n    using Strings for uint256;\n    mapping(string => uint8) existingURIs;\n    mapping(uint256 => address) public holderOf;\n     //This mapping maps Id to token info and is helpful when retrieving details about a Id\n    mapping(uint256 => TransactionStruct) private idToTransactionStruct;\n    address public artist;\n    uint256 public royalityFee;\n    uint256 public supply = 0;\n    uint256 public totalTx = 0;\n    uint256 public cost = 0.01 ether;\n\n    event Sale(\n        uint256 id,\n        address indexed owner,\n        uint256 cost,\n        string metadataURI,\n        uint256 timestamp\n    );\n\n    struct TransactionStruct {\n        uint256 id;\n        address owner;\n        uint256 cost;\n        string title;\n        string description;\n        string metadataURI;\n        uint256 timestamp;\n    }\n\n    TransactionStruct[] transactions;\n    TransactionStruct[] minted;\n\n    constructor(\n        string memory _name,\n        string memory _symbol,\n        uint256 _royalityFee,\n        address _artist\n    ) ERC721(_name, _symbol) {\n        royalityFee = _royalityFee;\n        artist = _artist;\n    }\n\n    function payToMint(\n        string memory title,\n        string memory description,\n        string memory metadataURI,\n        uint256 salesPrice\n    ) external payable {\n        require(msg.value >= cost, \"Ether too low for minting!\");\n        require(existingURIs[metadataURI] == 0, \"This NFT is already minted!\");\n        require(msg.sender != owner(), \"Sales not allowed!\");\n        \n\n        uint256 royality = (msg.value * royalityFee) / 100;\n        payTo(artist, royality);\n        payTo(owner(), (msg.value - royality));\n\n        supply++;\n\n        minted.push(\n            TransactionStruct(\n                supply,\n                msg.sender,\n                salesPrice,\n                title,\n                description,\n                metadataURI,\n                block.timestamp\n            )\n        );\n        idToTransactionStruct[supply]=TransactionStruct(\n              supply,\n                msg.sender,\n                salesPrice,\n                title,\n                description,\n                metadataURI,\n                block.timestamp\n        );\n\n        emit Sale(\n            supply,\n            msg.sender,\n            msg.value,\n            metadataURI,\n            block.timestamp\n        );\n\n        _safeMint(msg.sender, supply);\n        existingURIs[metadataURI] = 1;\n        holderOf[supply] = msg.sender;\n    }\n\n    function payToBuy(uint256 id) external payable {\n        require(msg.value >= minted[id - 1].cost, \"Ether too low for purchase!\");\n        require(msg.sender != minted[id - 1].owner, \"Operation Not Allowed!\");\n\n        uint256 royality = (msg.value * royalityFee) / 100;\n        payTo(artist, royality);\n        payTo(minted[id - 1].owner, (msg.value - royality));\n\n        totalTx++;\n\n        transactions.push(\n            TransactionStruct(\n                totalTx,\n                msg.sender,\n                msg.value,\n                minted[id - 1].title,\n                minted[id - 1].description,\n                minted[id - 1].metadataURI,\n                block.timestamp\n            )\n        );\n\n        emit Sale(\n            totalTx,\n            msg.sender,\n            msg.value,\n            minted[id - 1].metadataURI,\n            block.timestamp\n        );\n\n        minted[id - 1].owner = msg.sender;\n        idToTransactionStruct[supply].owner = msg.sender;\n    }\n\n    function changePrice(uint256 id, uint256 newPrice) external returns (bool) {\n        require(newPrice > 0 ether, \"Ether too low!\");\n        require(msg.sender == minted[id - 1].owner, \"Operation Not Allowed!\");\n\n        minted[id - 1].cost = newPrice;\n        return true;\n    }\n\n    function payTo(address to, uint256 amount) internal {\n        (bool success, ) = payable(to).call{value: amount}(\"\");\n        require(success);\n    }\n\n    function getAllNFTs() external view returns (TransactionStruct[] memory) {\n        return minted;\n    }\n\n    function getNFT(uint256 id) external view returns (TransactionStruct memory) {\n        return minted[id - 1];\n    }\n    //Returns all the NFTs that the current user is owner \n    function getMyNFTs() public view returns (TransactionStruct[] memory) {\n      uint itemCount = 0;\n      uint currentIndex = 0;\n      uint currentId;\n\n       for(uint i=0; i < minted.length; i++){\n          if(idToTransactionStruct[i+1].owner == msg.sender){\n              itemCount += 1;\n          }\n        }\n\n        TransactionStruct [] memory items =new TransactionStruct[](itemCount);\n\n        for(uint i=0; i < minted.length; i++){\n            if(idToTransactionStruct[i+1].owner == msg.sender){\n                currentId = i+1;\n                TransactionStruct storage currentItem = idToTransactionStruct[currentId];\n                items[currentIndex] = currentItem;\n                currentIndex += 1;\n              }\n        }\n        return items;\n\n    }\n\n    function getAllTransactions() external view returns (TransactionStruct[] memory) {\n        return transactions;\n    }\n}",
  "sourcePath": "/home/galien/portfolio/nft-market-place/MarcadoNFT/src/contracts/MarcadoNFT.sol",
  "compiler": {
    "name": "solc",
    "version": "0.8.11+commit.d7f03943.Emscripten.clang"
  },
  "schemaVersion": "3.4.11",
  "updatedAt": "2022-12-30T20:25:58.210Z",
  "networkType": "ethereum",
  "devdoc": {
    "kind": "dev",
    "methods": {
      "approve(address,uint256)": {
        "details": "See {IERC721-approve}."
      },
      "balanceOf(address)": {
        "details": "See {IERC721-balanceOf}."
      },
      "getApproved(uint256)": {
        "details": "See {IERC721-getApproved}."
      },
      "isApprovedForAll(address,address)": {
        "details": "See {IERC721-isApprovedForAll}."
      },
      "name()": {
        "details": "See {IERC721Metadata-name}."
      },
      "owner()": {
        "details": "Returns the address of the current owner."
      },
      "ownerOf(uint256)": {
        "details": "See {IERC721-ownerOf}."
      },
      "renounceOwnership()": {
        "details": "Leaves the contract without owner. It will not be possible to call `onlyOwner` functions anymore. Can only be called by the current owner. NOTE: Renouncing ownership will leave the contract without an owner, thereby removing any functionality that is only available to the owner."
      },
      "safeTransferFrom(address,address,uint256)": {
        "details": "See {IERC721-safeTransferFrom}."
      },
      "safeTransferFrom(address,address,uint256,bytes)": {
        "details": "See {IERC721-safeTransferFrom}."
      },
      "setApprovalForAll(address,bool)": {
        "details": "See {IERC721-setApprovalForAll}."
      },
      "supportsInterface(bytes4)": {
        "details": "See {IERC165-supportsInterface}."
      },
      "symbol()": {
        "details": "See {IERC721Metadata-symbol}."
      },
      "tokenByIndex(uint256)": {
        "details": "See {IERC721Enumerable-tokenByIndex}."
      },
      "tokenOfOwnerByIndex(address,uint256)": {
        "details": "See {IERC721Enumerable-tokenOfOwnerByIndex}."
      },
      "tokenURI(uint256)": {
        "details": "See {IERC721Metadata-tokenURI}."
      },
      "totalSupply()": {
        "details": "See {IERC721Enumerable-totalSupply}."
      },
      "transferFrom(address,address,uint256)": {
        "details": "See {IERC721-transferFrom}."
      },
      "transferOwnership(address)": {
        "details": "Transfers ownership of the contract to a new account (`newOwner`). Can only be called by the current owner."
      }
    },
    "version": 1
  },
  "userdoc": {
    "kind": "user",
    "methods": {},
    "version": 1
  }
}